:1000000000000420750300005D0300005F03000092
:1000100061030000630300006503000000000000AE
:100020000000000000000000000000006703000066
:1000300069030000000000006B0300006D03000076
:100040006F0300006F030000153A00002145000017
:10005000394500006F0300000D3900006F030000F8
:100060006F0300006F0300006F0300006F030000C8
:100070006F0300006F0300006F0300006F030000B8
:100080006F030000751B00006F0300006F0300008A
:100090006F0300006F0300006F0300006F03000098
:1000A0006F0300006F0300006F0300006F03000088
:1000B0006F0300006F03000000000000000000005C
:1000C0006F0300006F0300006F0300006F03000068
:1000D0006F0300006F0300006F0300006F03000058
:1000E0006F0300006F0300006F03000000000000BA
:1000F000000000006F030000000000006F0300001C
:1001000000000000000000000000000000000000EF
:1001100000000000000000000000000000000000DF
:1001200000000000000000000000000000000000CF
:1001300000000000000000000000000000000000BF
:1001400000000000000000000000000000000000AF
:10015000000000000000000000000000000000009F
:10016000000000000000000000000000000000008F
:10017000000000000000000000000000000000007F
:10018000000000000000000000000000000000006F
:10019000000000000000000000000000000000005F
:1001A000000000000000000000000000000000004F
:1001B000000000000000000000000000000000003F
:1001C000000000000000000000000000000000002F
:1001D000000000000000000000000000000000001F
:1001E000000000000000000000000000000000000F
:1001F00000000000000000000000000000000000FF
:10020000354936480A1A02D0072291438D463449AF
:1002100034480A1A06D00722914381F30988022242
:1002200082F3148830483149314A00F044F83148AB
:100230003149324A00F03FF831483249324A00F041
:100240003AF832483249334A00F035F832483349F7
:10025000334A00F030F833483349344A00F02BF881
:1002600033483449344A00F026F8344834490022EF
:1002700000F02CF833483449002200F027F83348C6
:100280003349091A082902DB002202604160314A21
:1002900090471F481F49884205D00268043003B4C4
:1002A000904703BCF7E700208646EC46002000217B
:1002B000294A9047FEE7884207D0521A05D00378B2
:1002C00001300B700131013AF9D17047884202D0F8
:1002D00002700130FAE770470000042000E00320BC
:1002E0000000042000000420E877000078000020CF
:1002F000E0000020D0030000D00300006063000095
:10030000E877000078000020780000207864000082
:10031000786400007864000078640000786400006D
:10032000786400007864000078640000E8770000DA
:1003300050780000E0000020E0000020E0000020F5
:100340003C0B00203C0B00203C0B00203C0B002011
:100350003C2B00209D030000A9490000FEE7FEE7BA
:10036000FEE7FEE7FEE7FEE7FEE7FEE7FEE7FEE765
:1003700000F002B8FFF7FCBF0F484FF007018843B9
:1003800085460E4880470E48016841F470010160BF
:10039000BFF34F8FBFF36F8FFFF732BF09480A4992
:1003A0000A4A884207D0521A05D0037801300B70F0
:1003B0000131013AF9D17047000004206551000075
:1003C00088ED00E0006400000000002078000020BC
:1003D00000B585B00190019B002B0AD0074B43F07C
:1003E00001030393019B9B010293039B029898478F
:1003F00000E000BF05B05DF804FB00BF90640000A2
:1004000000B583B00190019B002B0AD04FF47A70A5
:10041000FFF7DEFF019B013B0193019B002BF5D110
:1004200000E000BF03B05DF804FB08B504F0BAFCBF
:1004300000BF08BD00B589B0039002910192019BF5
:10044000002B33D00023079303230693029A079BC4
:100450001344019A1946002004F054FC0590079AB1
:10046000059B13440793019A059BD31A0193059B9F
:10047000002B13D10F4B1B7883F00103DBB2002B51
:1004800013D10120FFF7BCFF069B013B0693069B9F
:10049000002B03D1074B00221A7007E0054B012205
:1004A0001A70019B002BD1D100E000BF00BF09B042
:1004B0005DF804FBE000002000B585B003900291D8
:1004C000064B00934FF48073054A0299039800F09D
:1004D00013F800BF05B05DF804FB00BF3504000051
:1004E000E400002082B0019000BF02B0704782B0EB
:1004F000019000BF02B0704700B5A1B00590049113
:1005000003920293049802F053F9039B1593029B04
:1005100016930023179300238DF86030002319935E
:10052000229B1A9300231F930FA91F9B0822049854
:1005300002F018FA08231F93119B1293BDF8403064
:10054000ADF84C30BDF84230ADF84E3000238DF898
:1005500051309DF83C3003F00303DBB2012B26D170
:100560000F9BC3F395231C939DF83C30C3F3C20348
:10057000DBB28DF85030BDF83C30C3F38313DBB2EF
:100580001B931B9B9A0009A91F9B049802F0EAF990
:100590001B9B9B001F9A13441F9312AA09A915AB1A
:1005A000009313461B9A1C9800F0E8FF2FE09DF87B
:1005B0003C3003F00303DBB2022B28D1BDF83E3000
:1005C000C3F389139BB21E939DF83C30C3F3C2035F
:1005D000DBB28DF850301E9B082B28BF08231D93DB
:1005E00007A91F9B1D9A049802F0BCF91F9A1D9B36
:1005F00013441F931E9A1D9BD31A1E9315AB12AA68
:1006000007A81D9901F05CF81E9B002BE3D104980C
:1006100002F0DDF800BF21B05DF804FB82B001906C
:10062000019BDB6801225A7100BF02B070470000D5
:1006300000B583B04FF0FF330193FFF7F6FE0421BE
:10064000084800F091FE0190019B002B03DA064957
:10065000412001F09DFA0348FFF7E0FF00BF03B01F
:100660005DF804FBD8630000A864000000B583B007
:1006700001900091019B1B681B68009901989847A5
:1006800000BF03B05DF804FB00B583B00190019B8F
:100690001B685B680198984700BF03B05DF804FBD6
:1006A00000B583B00190019B1B689B680198984737
:1006B00000BF03B05DF804FB82B001900B468DF8DB
:1006C0000330019BDB689DF803201A7100BF02B064
:1006D000704782B00190019BDB681B79184602B01D
:1006E000704782B00190019BDB6801225A7100BF04
:1006F00002B0704782B00190019BDB685B791846BD
:1007000002B0704700B58DB001900091364B0122C8
:100710001A70364801F0B0FF0890089B002B01D0FA
:10072000089B5CE0324802F03DF9324A324BD31A62
:10073000DB08079300230B9332E000230993002387
:100740000A931DE00B9A0A9B9A4216D00B9BDB0082
:10075000294A13441B6803930A9BDB00264A13446F
:100760001B68029314220299039805F049FD034681
:10077000002B02DD099B013309930A9B01330A9385
:100780000A9A079B9A42DDD30B9B9B001B4A13449A
:100790000493099B9AB2049B1A800B9B01330B9321
:1007A0000B9A079B9A42C8D300230B9312E00B9B32
:1007B0009B00124A134406930B9B9B00104A134460
:1007C0000593069B00225A80059B00221A600B9B12
:1007D00001330B930B9A079B9A42E8D300231846E8
:1007E0000DB05DF804FB00BF4C030020E86300007F
:1007F00084650000D86300006063000000000020F2
:100800003C000020024A034BD31ADB08184670470D
:10081000D86300006063000000B587B001900B460C
:100820008DF803309DF80330002B1FD0FFF7EAFF4F
:1008300004900023059313E0059B9B000E4A13448C
:100840000393039B1B881A46019B1B689A4204D1A1
:10085000019B059A1A60002309E0059B013305936B
:10086000059A049B9A42E7D3052300E0002318462B
:1008700007B05DF804FB00BF0000002000B585B0A4
:1008800001900B468DF803309DF8032001AB114613
:100890001846FFF7C1FF0346002B07D1019BDB0081
:1008A000054A13440393039B1B6800E0002318468A
:1008B00005B05DF804FB00BF6063000084B00190E8
:1008C0000B468DF80330019BDB00174A134402935B
:1008D0009DF80330013B032B1CD801A252F823F0F2
:1008E000F1080000F9080000010900000B090000F0
:1008F00002238DF80F3011E004238DF80F300DE046
:10090000029B1B798DF80F3008E0029B5B798DF814
:100910000F3003E000238DF80F3000BF9DF80F303B
:10092000184604B0704700BF6063000086B00190B5
:100930000023ADF816300023049316E00722049B31
:100940009A40019B1A40049B22FA03F3ADF80E3043
:10095000BDF80E20BDF816309A4203D9BDF80E300E
:10096000ADF81630049B03330493049B092BE5D99F
:10097000BDF81630184606B07047000000B587B0C5
:100980000390029113468DF80730029B9B001C4A8E
:1009900013440593029B9B001A4A13440493049B3F
:1009A0001968039A13465B001344072202FA03F303
:1009B000DB4301EA0302049B1A60049B19689DF85B
:1009C0000700039A13465B0013449840039A1346AA
:1009D0005B001344072202FA03F3034041EA0302D7
:1009E000049B1A60049B1B681846FFF79FFF034691
:1009F0001A46059B5A8000BF07B05DF804FB00BF94
:100A0000000000203C00002084B00190019BDB002E
:100A1000034A13440393039BDB79184604B07047E1
:100A20006063000084B00190009100238DF80F30C6
:100A3000019B1B7803F00403DBB2002B24D0019B45
:100A40001B78C3F30103DBB2012B02D0022B0CD0C5
:100A500017E0009B1B68019A1288C2F38312D2B27E
:100A600013449A1C009B1A600BE0009B1B68019AC0
:100A70005288C2F3891292B213449A1C009B1A60E6
:100A800000BF01238DF80F309DF80F30184604B0D9
:100A90007047000000B58BB00023ADF826303E480B
:100AA00001F003F93D4801F000F93D4B9B680493C8
:100AB0003C4B1B680693049A069B134002339B0031
:100AC000374A13440433089304AB19460898FFF7D8
:100AD000A9FF0346002B09D0049A069B134002335A
:100AE0009B002F4A134404330893EDE700BF002313
:100AF000079311E0049B5A1C0492069A1340079A2C
:100B0000920001A90A44264902339B000B445B680A
:100B10001360079B01330793079B012BEAD99DF8CC
:100B20000430C3F30103DBB2012B10D0022B1CD124
:100B3000BDF80A30ADF82630BDF80630C3F389138E
:100B40009BB203339A08049B1344049313E0BDF84B
:100B50000A30ADF82630BDF80430C3F38313DBB29E
:100B60001A46049B1344049305E00F494FF4C270E6
:100B700001F00EF800BF094801F0A3F80590059BAD
:100B8000002B02D0049B064A9360BDF8263018461D
:100B90000BB05DF804FB00BF640700206007002075
:100BA0004C030020800000201C65000000B585B0CB
:100BB0000021074801F002F80390039B0293029B77
:100BC00083F310030193019B184605B05DF804FB05
:100BD0006807002000B589B003900291019200934C
:100BE000039B1B0C0793FFF7E1FF0690FFF70AFE3C
:100BF0000246079B934204D3214940F2A91000F01A
:100C0000C7FF069B1904009B5A1C0A9B1340079AB6
:100C10000A431C4902339B000B445A60009A0A9B0A
:100C2000134002339B00174A134404330593039B7C
:100C300003F00703D9B2059A137861F3C503137063
:100C4000019B03F00F03D9B2059A138861F389134E
:100C50001380029BC3F31501059A136861F39F2368
:100C60001360059A1378012161F301031370059A4B
:100C700013786FF38203137000BF09B05DF804FBB3
:100C80001C6500004C03002000B58BB0039002915E
:100C900013468DF80730039B0233089301238DF828
:100CA0001F30002000F01EFF3E4B5A68029B1A6066
:100CB0003D4B1A683B4B99683A4B5B68CB1A13441F
:100CC0000133099314E00121384800F0BEFFFFF71B
:100CD000E1FE05900599354800F0B7FF324B1A68E0
:100CE000304B99682F4B5B68CB1A1344013309933F
:100CF000089A099B9A42E6D89DF81F30002B48D0ED
:100D0000002304939DF80730002B17D09DF8103076
:100D1000012262F301038DF810309DF8103043F08A
:100D200004038DF81030039B03F00F03DAB2BDF813
:100D3000103062F38913ADF8103016E09DF81030D2
:100D4000022262F301038DF810309DF8103043F059
:100D500004038DF81030039BC3F309039AB2BDF866
:100D6000123062F38F13ADF812300E4B5A680E4BEF
:100D70001B68134002339B000A4A13440433069352
:100D8000049A069B1A60074B5A68089B1344054A4D
:100D90005360002000F0BAFE9DF81F3018460BB0DB
:100DA0005DF804FB4C030020800000206807002051
:100DB00000B58BB005900491039202931F4B1B6802
:100DC000079306AB012219460298FFF75DFF034621
:100DD000002B24D0069B023309930023089311E0D3
:100DE000089B9B00039A1A44099B591C0991079977
:100DF0000B401268124902339B000B445A60089B57
:100E000001330893089A029B9A42E9D3069A079BFA
:100E100000931346029A04990598FFF7DBFE084BEE
:100E20001B78002B05D000BF00F068F80346002BAC
:100E3000FAD100BF0BB05DF804FB00BF80000020BA
:100E40004C03002000B583B00190009100230022E4
:100E500000990198FFF7ACFF00BF03B05DF804FBF9
:100E600000B587B0039002910192019B059305AAFA
:100E7000012302990398FFF79BFF00BF07B05DF8BD
:100E800004FB00B587B00390029101920093019B8F
:100E90000493009B059304AA022302990398FFF789
:100EA00087FF00BF07B05DF804FB00B58BB003906F
:100EB000029101920093019B0593009B06930C9B6A
:100EC00007930D9B08930E9B099305AA052302998E
:100ED0000398FFF76DFF00BF0BB05DF804FB000047
:100EE000054B9A68044B5B689A420CBF01230023B0
:100EF000DBB21846704700BF4C03002000B59BB022
:100F0000FFF7EEFF0346002B01D00023E7E19B4BE8
:100F10000022C3F81824BFF34F8F00BF974B9B6884
:100F20000493974B1B681193049A119B134002334F
:100F30009B00924A1344043319930023189300230F
:100F400017930023169304AB19461998FFF76AFD0F
:100F50000346002B19D0894BD3F81834002B14D139
:100F6000864B5A68049B9A4205D8844B5B68834A37
:100F700093600023B3E1049A119B134002339B005A
:100F80007E4A134404331993DDE70023159311E0DF
:100F9000049B5A1C0492119A1340159A920001A9BD
:100FA0000A44764902339B000B445B681360159B2F
:100FB00001331593159B012BEAD99DF8043003F0FA
:100FC0000303DBB2022B40F09C80BDF80630C3F374
:100FD00089139BB20F93BDF80630C3F389139BB2FC
:100FE000502B28BF50239BB20E930E9BC3F30903D3
:100FF0009AB2BDF8063062F38F13ADF806300E9B3F
:1010000008330D939DF80430C3F3C203DBB216938B
:101010000D995C4801F03BFB1890189B002B00F0E9
:10102000D380189801F0C4FB01A9179B08221898D7
:1010300001F07AFC179B08331793049BDA43119B4A
:10104000134001339B000C930E9A0C9B9A4242D999
:101050000C9B002B08D0049A119B134002339B0079
:10106000464A1344043300E0474B0A930C9B002B81
:1010700002D00C9BDBB201E00E9BDBB28DF8273077
:101080000C9B002B01D0404B00E0002308930C9BED
:10109000002B06D00E9BDAB20C9BDBB2D31ADBB26C
:1010A00000E000238DF81F309DF82720179B0A9938
:1010B000189801F039FC9DF82730179A13441793BC
:1010C000089B002B16D09DF81F20179B0899189895
:1010D00001F02AFC0EE0049A119B134002339B009E
:1010E000264A134404330B93179B0E9A0B991898B6
:1010F00001F01AFC0F9B03339A08049B13440493DA
:1011000062E09DF8043003F00303DBB2012B5BD1F6
:10111000BDF80430C3F38313DBB2062B28BF0623CC
:10112000DAB2BDF8043062F38913ADF80430BDF8CB
:101130000430C3F38313DBB2023310939DF8043001
:10114000C3F3C203DBB21693109B9B0019460D48F4
:1011500001F09DFA1890189B002B35D0189801F0DB
:1011600027FB01A9179B0822189801F0DDFB179BAC
:1011700008331793002315931DE000BF4C03002094
:1011800080000020E863000058030020049B5A1CE4
:101190000492119A134002339B00534A1344191DC1
:1011A000179B0422189801F0BFFB179B0433179379
:1011B000159B01331593BDF80430C3F38313DBB2E1
:1011C0001A46159B9342E1D3189B002B63D0464BE4
:1011D000D3F810341493444BD3F81834002B45D073
:1011E000189801F0F4FA74E000238DF84F30149849
:1011F000FFF780FA0346002B2CD01498FFF769FA0A
:1012000003468DF81E30BDF808309B00374A134462
:101210000693069B19689DF81E2013465B00134435
:10122000072202FA03F319409DF81E2013465B00C3
:10123000134421FA03F30593169B052B01D0169B4B
:1012400000E003231693059A169B9A4202D30123CA
:101250008DF84F309DF84F30002B03D0189914981B
:10126000FFF704FA149BDB681B681493149B002B94
:10127000BAD1189801F0ABFA002000F033FC1A4BF9
:10128000D3F81834002B02D1049B174A9360002036
:1012900000F03CFC1DE0144BD3F81034129306E030
:1012A0001298FFF7FDF9129BDB681B681293129BE3
:1012B000002BF5D10E4B5B88012B0AD90D4A0E4B42
:1012C000D31ADB081B0443F002030C491846FFF74E
:1012D000B9FDFFF705FE034683F00103DBB21846B4
:1012E0001BB05DF804FB00BF4C0300203C00002055
:1012F0001400002088630000606300007065000037
:1013000000B585B00023039323E0164BD3F81034C7
:10131000029301238DF807300FE00298FFF7D9F907
:1013200003461A46039B934203D100238DF80730EE
:1013300006E0029BDB681B680293029B002BECD14A
:101340009DF80730002B01D0039B07E0039B01337E
:101350000393039B092BD8DD4FF0FF33184605B0EC
:101360005DF804FB4C03002000B587B001900B46EC
:101370008DF80330FFF7C4FF0490049BB3F1FF3FE7
:1013800001D1049B48E0049BDBB219460198FFF7AA
:1013900093F9234BD3F81034002B08D1204A019B3A
:1013A000C2F81034019BDB6800221A600DE01C4B70
:1013B000D3F81034DA68019BDB6812681A60184BA6
:1013C000D3F81034DB68019A1A60002305931CE0FF
:1013D0000598FFF719FB03468DF80F309DF80320A1
:1013E0009DF80F30934228BF13468DF80E300198B8
:1013F000FFF76FF9034618469DF80E301A46059917
:10140000FFF7BCFA059B01330593FFF7FBF9024692
:10141000059B9342DCD3049B184607B05DF804FBA0
:101420004C03002000B583B00C4BD3F8103401936B
:101430000A4B01221A7009E00198FFF752F901984E
:10144000FFF722F9019BDB681B680193019B002BCE
:10145000F2D100BF00BF03B05DF804FB4C030020D5
:1014600082B00190009100BF02B0704710B584B007
:1014700003900291039BDB88002B0AD0039BDB883F
:101480001A461F4B009313461E4A1F49029800F04C
:1014900047FD039B1B7A052B2ED0039B5B7A002B09
:1014A00012D0039B9B881A46039B1B7A1946104651
:1014B000FFF704FA03461A46144B53F822301A4633
:1014C0001349029800F02CFD039B1B6819460298F3
:1014D000FFF7C6FF039B1B7A1A460E4B53F82240B8
:1014E000039B9B8800211846FFF7C8F90346224654
:1014F0000949029800F014FD00BF04B010BD00BF00
:10150000B0650000C0650000F8650000980000208C
:1015100010660000840000201466000000B585B04D
:101520000390029113468DF80730039B1B7A052B1D
:101530000FD0039B5B7A002B06D00D4B1B681A461D
:101540000C49029800F0ECFC0B49029800F0E8FC12
:1015500007E09DF80730002B03D00749029800F000
:10156000DFFC029800F0BAFC00BF05B05DF804FB98
:1015700098000020106600002066000030B58BB097
:1015800007900691059204930E9B1B7B8DF82730E4
:101590000E9B00221A730E990498FFF767FF059BB4
:1015A000062B7FD801A252F823F000BFC915000016
:1015B000D3150000E3150000F71500001516000014
:1015C0003D1600006D16000007990E9800F0A8FC6B
:1015D00069E0069B1B681A4607990E9800F0A0FC6C
:1015E00061E0069B1A68069B04331B6807990E98F6
:1015F00000F096FC57E0069B1A68069B04331968B6
:10160000069B08331B6800930B4607990E9800F061
:1016100087FC48E0069B1968069B04331868069B04
:1016200008331B68069A0C32126801920093034635
:101630000A4607990E9800F073FC34E0069B186880
:10164000069B04331C68069B08331B68069A0C3201
:10165000126806991031096802910192009323469D
:10166000024607990E9800F05BFC1CE0069B1C6884
:10167000069B04331D68069B08331B68069A0C32D0
:1016800012680699103109680698143000680390B2
:101690000291019200932B46224607990E9800F082
:1016A0003FFC00E000BF00220E990498FFF736FFD0
:1016B0000E9B9DF827201A7300BF0BB030BD00BFF2
:1016C00000B587B00390029101920093029B082B12
:1016D00060D8009B1B7B8DF81330009B00221A738F
:1016E00000990198FFF7C2FE0023059314E0059AC4
:1016F000029B9A4209D2039A059B13441B781A460F
:101700002649009800F00CFC03E02549009800F001
:1017100007FC059B01330593059B072BE7D921495E
:10172000009800F0FDFB0023059326E0059A029B3C
:101730009A421BD2039A059B13441B788DF81230F2
:101740009DF812307E2B0AD89DF81230184604F00E
:101750004FFD0346002B02D09DF8123000E02E23EF
:101760001A461149009800F0DBFB03E00F4900988E
:1017700000F0D6FB059B01330593059B072BD5D9BC
:10178000012200990198FFF7C9FE009B9DF81320E4
:101790001A7300E000BF07B05DF804FB2466000088
:1017A0002C660000306600003466000038660000D9
:1017B00000B583B00190019B1B68184600F040F80B
:1017C0000346002B04D10B494FF4F67000F0E0F90A
:1017D000019B1B681F2B02D84FF0A04306E0019B22
:1017E0001B6803F01F02019B1A60034B184603B0ED
:1017F0005DF804FB3C6600000003005000B585B0B6
:10180000019001AB1846FFF7D3FF0390039BD3F879
:1018100004350293029BDA43019B012101FA03F391
:101820001A40039BC3F80825019B01229A40029BA2
:101830001A40039BC3F80C2500BF05B05DF804FBFC
:1018400084B00190019B5B09029300230393029BE8
:10185000002B03D0029B012B04D007E04FF0FF3395
:10186000039303E04FF6FF73039300BF019B03F064
:101870001F030193039A019B22FA03F303F0010370
:10188000002B14BF01230023DBB2184604B07047BD
:1018900000B583B00190019B032B03D907495F205A
:1018A00000F076F9064A019B13441B781846FFF7AF
:1018B000A5FF00BF03B05DF804FB00BF6C6600002D
:1018C000AC66000086B003900291019201238DF86E
:1018D00017309DF81730204A039B13601E4A029B65
:1018E00053601D4A019B9360039B44F201029342A3
:1018F00012D0039B44F20202934220D1019B164A6C
:10190000D360154BDB681B68134A9361124BDB688D
:101910005B68114AD36112E0019B0F4A13610E4BC1
:101920001B699B680C4A53610B4B1B691B680A4A75
:101930009361094B1B695B68074AD36100BF72B6AC
:1019400000BF00BF9DF81730DBB2002BFAD162B6A2
:1019500000BF00BF06B070476C07002000B583B021
:1019600002900091019244F2010071466A4600F033
:1019700003F803B000BD00BF30B58BB007900691EF
:10198000059272B600BFFFF74DFD00BFFFF7B6FA34
:101990000346002BFAD1079B44F2010293421AD06E
:1019A000079B44F2020293424AD1059B0993374BAD
:1019B0005B88002B55D0364A364BD31ADB081B0404
:1019C00043F00100099B5B681A46099B1B6832497A
:1019D000FFF757FA45E0059B08932C4B5B88002BDB
:1019E0001ED02B4A2B4BD31ADB081B0443F00104F7
:1019F000089B9D68089B9B68184600F0F1FF034612
:101A00001846089B5B681946089B1B68069A029259
:101A10000193009103462A4620492046FFF745FAE4
:101A20001A4B5B88002B1ED0194A1A4BD31ADB08BD
:101A30001B0443F001031A491846FFF703FA12E0AA
:101A4000124B5B88002B10D0114A124BD31ADB08C3
:101A50001B0443F00103069A12491846FFF700FAE7
:101A600003E000BF02E000BF00E000BF0E4B1B68B8
:101A700003F00103002B00D000BE059A06990798D9
:101A8000FFF720FF00BF0BB030BD00BF14000020E7
:101A90008863000060630000306700004C6700004E
:101AA0007467000088670000F0ED00E072B600BFC8
:101AB000034B1B680133024A136000BF704700BF2D
:101AC0008C070020064B1B68013B054A1360044B42
:101AD0001B68002B01D162B600BF00BF704700BF7A
:101AE0008C07002000B583B0019000F025F8034674
:101AF000012B03D00449432000F04AF8FFF7D6FF3A
:101B000000BF03B05DF804FB1068000000B583B0AF
:101B100003468DF8073000F00FF80346012B03D081
:101B20000449512000F034F8FFF7CCFF00BF03B0A8
:101B30005DF804FB1068000084B0EFF305830193A7
:101B4000019BC3F308030393039B002B0DD1EFF319
:101B500014830093009B0293029B03F00103002B6C
:101B60000CBF01230023DBB200E00123184604B0C0
:101B70007047000008B5044B1B68044A1268104601
:101B8000984700BF08BD00BF9007002094070020C1
:101B900000B585B003460091ADF80630BDF80630BB
:101BA0000293009B039302AB1A46002144F2020009
:101BB000FFF7E2FE00BF05B05DF804FB10B487B08C
:101BC00001900091019B009A53E8004F104643E8B2
:101BD000000191F0000FF7D1059404900391059B4B
:101BE000184607B05DF8044B704710B487B00190F9
:101BF0000091019B009A53E8004F44EA020043E839
:101C0000000191F0000FF6D1059404900391049B1C
:101C1000184607B05DF8044B704710B487B00190C8
:101C20000091019B009A53E8004F04EA020043E848
:101C3000000191F0000FF6D1059404900391059BEB
:101C4000184607B05DF8044B704710B487B0019098
:101C50000091019B009A53E8004F04EB020043E817
:101C6000000191F0000FF6D1059404900391049BBC
:101C7000184607B05DF8044B704710B487B0019068
:101C80000091019B009A53E8004FA4EB020043E847
:101C9000000191F0000FF6D1059404900391049B8C
:101CA000184607B05DF8044B704700B583B001904B
:101CB00001210198FFF799FF0346184603B05DF82C
:101CC00004FB00B583B0019000210198FFF7A5FF48
:101CD0000346184603B05DF804FB000000B583B06E
:101CE00001900B468DF80330019B002B03D108496E
:101CF000E820FFF74DFF019BDA689DF8033001995A
:101D0000898A01FB03F31344184603B05DF804FB12
:101D10006468000000B583B001900091019B002B26
:101D200003D10849F520FFF733FF009B019AD268E1
:101D30009B1A019A928AB3FBF2F3DBB2184603B006
:101D40005DF804FB6468000000B585B00190019B5C
:101D5000002B01D10E234CE0019B1B68002B03D10B
:101D60002649FF20FFF714FF019B5B68002B04D17D
:101D700022494FF48070FFF70BFF019B9B68002BFB
:101D800004D11E4940F20110FFF702FF019BDB68FE
:101D9000002B04D119494FF48170FFF7F9FE019B24
:101DA0009B8A002B04D1154940F20310FFF7F0FE87
:101DB000019B9A68019B5B68D31A8DF80F30019BD9
:101DC0001B68019A52681A6007E0019B1A68136841
:101DD000591C11609DF80F201A709DF80F305A1E83
:101DE0008DF80F20002BF0D1019B1B6800221A7187
:101DF0000023184605B05DF804FB00BF64680000CE
:101E000000B585B00190019B002B04D11C494FF413
:101E10009270FFF7BDFE002303930020FFF762FEE0
:101E2000019B1B681A68019B5B689A421FD9019B42
:101E30001B681A68013A1A601B681B7819460198DA
:101E4000FFF74CFF0390019B9A68019B1B681B687E
:101E5000D31A8DF80B30019B1B681B799DF80B2062
:101E60009A4204D9019B1B689DF80B201A7100202F
:101E7000FFF74CFE039B184605B05DF804FB00BF5E
:101E80006468000010B584B001900091019B002BA4
:101E900004D1114940F24710FFF77AFE009B002B56
:101EA00004D10D494FF4A470FFF772FE009B039319
:101EB0000020FFF717FE019B1B681C68621C1A605C
:101EC00003990198FFF726FF034623700020FFF7D0
:101ED0001DFE00BF04B010BD6468000000B583B0F3
:101EE0000190019B002B03D10C493120FFF750FEDC
:101EF000019B9B68002B0CD0019B5B69019A1069C8
:101F0000019A1168019A92689847019B00229A6091
:101F100000E000BF03B05DF804FB00BFB068000044
:101F20000EB400B584B00190019B002B03D1184979
:101F30004220FFF72DFE019B5B69002B03D1144962
:101F40004320FFF725FE019B1B68002B03D110499E
:101F50004420FFF71DFE019B5B68002B03D10C4959
:101F60004520FFF715FE059B002B0AD000230393A5
:101F700006AB039303AB1A460599019800F0B8F934
:101F800000E000BF04B05DF804EB03B0704700BF91
:101F9000B068000000B583B001900B468DF80330A7
:101FA0009DF803300A2B03D10D210198FFF7F2FFB2
:101FB000019B1A68019B9B68581C01998860134417
:101FC0009DF803201A70019B9A68019B5B689A42F6
:101FD00002D30198FFF782FF00BF03B05DF804FB56
:101FE00000B587B0039002910192009300230593FE
:101FF000009B03F00103002B24D00BE0029B013374
:102000000293059B013305939DF8133019460398FD
:10201000FFF7C0FF029B1B788DF813309DF813303B
:10202000002BEBD106E0019B013B0193202103989B
:10203000FFF7B0FF019A059B9A422ED9019B002B16
:10204000F1D12AE0029B002B0BD0029804F058F942
:10205000059006E0019B013B019320210398FFF7C7
:1020600099FF019A059B9A420FD9019B002BF1D150
:102070000BE0029B01330293059B013305939DF80E
:10208000133019460398FFF785FF029B1B788DF8E4
:1020900013309DF81330002BEBD100BF07B05DF873
:1020A00004FB000000B589B00390029101920093F7
:1020B000029B07930123069307E0079A019BB2FB5B
:1020C000F3F30793069B01330693079A019B9A4209
:1020D000F3D2009A069B9A4201D9009B06930B9B70
:1020E00003F00103002B22D10A9B002B1FD00B9B76
:1020F00003F00203002B06D0009B002B03D13023FA
:102100008DF8173002E020238DF8173008E00A9B85
:10211000013B0A939DF8173019460398FFF73AFFE1
:102120000A9B002B03D0069A0A9B9A42EFD3012305
:102130000793009B012B03D9009B013B009309E00F
:10214000029A079BB2FBF3F30493049A019B9A4211
:1021500000D205E0079B019A02FB03F30793E8E72F
:10216000029A079BB2FBF3F30493049B079A02FBCA
:1021700003F3029AD31A0293154A049B13441B7863
:1021800019460398FFF706FF079A019BB2FBF3F38A
:102190000793079B002BE3D10B9B03F00103002B5C
:1021A00011D00A9B002B0ED006E00A9B013B0A933C
:1021B00020210398FFF7EEFE0A9B002B03D0069A1E
:1021C0000A9B9A42F1D300BF09B05DF804FB00BF3F
:1021D0004069000000B589B0059004910392029314
:1021E000049B002BB8BF5B4206930123079307E0D3
:1021F000039B069A92FBF3F30693079B0133079325
:10220000039B069A9A42F3DA029A079B9A4201D9F3
:10221000029B07930A9B002B0AD0049B002B04DB34
:102220000B9B03F00403002B02D00A9B013B0A9393
:102230000B9B03F00203002B02D0029B002B16D055
:102240000B9B03F00103002B11D10A9B002B0ED036
:1022500006E00A9B013B0A9320210598FFF79AFEAE
:102260000A9B002B03D0079A0A9B9A42F1D3049B46
:10227000002B07DA049B5B4204932D210598FFF79E
:1022800089FE08E00B9B03F00403002B03D02B21F5
:102290000598FFF77FFE0B9B03F00203002B19D07C
:1022A0000B9B03F00103002B14D1029B002B11D1D7
:1022B0000A9B002B0ED006E00A9B013B0A933021BB
:1022C0000598FFF767FE0A9B002B03D0079A0A9B2D
:1022D0009A42F1D304990B9B01930A9B0093029BB2
:1022E000039A0598FFF7DEFE00BF09B05DF804FB16
:1022F00000B58FB0059004910392059B002B04D18B
:10230000AD4940F25220FFF743FC059B5B69002B6F
:1023100004D1A9494FF41570FFF73AFC059B1B68DF
:10232000002B04D1A44940F25520FFF731FC059B56
:102330005B68002B04D1A04940F25620FFF728FC2F
:10234000049B002B00F09381049B1B788DF83730A1
:10235000049B013304939DF83730002B00F07E81FD
:102360009DF83730252B40F06D8100230A9301231F
:102370000C93049B1B788DF837309DF83730302B49
:102380000DD0302B1BDC2B2B11D02D2B17D10A9B02
:1023900043F001030A93049B0133049312E00A9B68
:1023A00043F002030A93049B013304930AE00A9B5F
:1023B00043F004030A93049B0133049302E00023D7
:1023C0000C9300BF0C9B002BD3D1002309939DF8E5
:1023D00037302A2B0CD1039B1B68191D039A1160FF
:1023E0001B68099A13440993049B013304931AE070
:1023F000049B1B788DF837309DF837302F2B12D97E
:102400009DF83730392B0ED8049B01330493099A79
:1024100013469B0013445B001A469DF83730134463
:10242000303B0993D3E700230B93049B1B788DF873
:1024300037309DF837302E2B1DD1049B0133049388
:10244000049B1B788DF837309DF837302F2B12D92D
:102450009DF83730392B0ED8049B013304930B9A27
:1024600013469B0013445B001A469DF83730134413
:10247000303B0B93E4E7049B1B788DF837309DF8D5
:1024800037306C2B03D09DF83730682B07D1049B75
:1024900001330493049B1B788DF83730EFE79DF8E8
:1024A0003730252B00F0C480252BC0F2C680782B56
:1024B00000F3C380582BC0F2C080583B202B00F2A1
:1024C000BC8001A252F823F0BD2500003B2600008D
:1024D0003B2600003B2600003B2600003B26000078
:1024E0003B2600003B2600003B2600003B26000068
:1024F0003B2600004D2500006F2500003B26000014
:102500003B2600003B2600003B2600006F25000014
:102510003B2600003B2600003B2600003B26000037
:102520003B2600003B260000FD2500003B26000066
:102530003B260000E12500003B260000932500001B
:102540003B2600003B260000BD250000039B1B68C6
:10255000191D039A11601B680C930C9B8DF81F309A
:102560009DF81F3019460598FFF714FD66E0039BA0
:102570001B68191D039A11601B680C930A9B019339
:10258000099B00930B9B0A220C990598FFF722FEEA
:1025900054E0039B1B68191D039A11601B680C9380
:1025A0000C990A9B0193099B00930B9B0A220598A7
:1025B000FFF778FD42E000BFF4680000039B1B6852
:1025C000191D039A11601B680C930C990A9B0193C7
:1025D000099B00930B9B10220598FFF763FD2DE0EC
:1025E000039B1B68191D039A11601B6808930A9BC3
:1025F000099A08990598FFF7F3FC1FE0039B1B68F5
:10260000191D039A11601B680C9330210598FFF780
:10261000C1FC78210598FFF7BDFC0C9900230193BC
:1026200008230093082310220598FFF73BFD05E0DF
:1026300025210598FFF7AEFC00E000BF049B0133A5
:10264000049305E09DF8373019460598FFF7A2FC82
:10265000049B1B78002B7FF477AE00E000BF059B46
:102660001B7B002B04D00598FFF738FC00E000BF6F
:102670000FB05DF804FB00BF00B583B00190019876
:10268000FFF762FB0346184603B05DF804FB00B594
:102690008BB001900091019B9B8A043B0793009AA9
:1026A000079B1344DA1C079BB2FBF3F38DF81B3036
:1026B0000198FFF7A5FB0590059B002B01D1002396
:1026C00038E0059B00221A71059B01225A71079B75
:1026D0009AB2059BDA80059B09939DF81B30013B5C
:1026E0000493099B019A1A60002308931DE0019846
:1026F000FFF786FB0390039B002B0ED0059B5B79B5
:102700000133DAB2059B5A71099B039A1A60039B45
:10271000019A1A60039B099304E0059800F00EF8F3
:10272000002307E0089B01330893089A049B9A4210
:10273000DDD3059B18460BB05DF804FB00B58BB0EC
:102740000190019B0793079B5B798DF81B30019BE0
:1027500008939DF81B30013B05930023099305E086
:10276000089B1B680893099B01330993099A059BF1
:102770009A42F5D3089B1B680493019B089300239E
:1027800009930BE0089B1B68039308990498FFF7D3
:1027900079FB039B0893099B013309939DF81B3038
:1027A000099A9A42EED300BF00BF0BB05DF804FB5C
:1027B00000B585B00190019B0393039B0433012175
:1027C0001846FFF742FA00BF05B05DF804FB00B5FC
:1027D00087B00190019B0593059B043301211846A6
:1027E000FFF74BFA0346039303AB0493049B1B7858
:1027F000002B02D10198FFF7A1FF00BF07B05DF8E1
:1028000004FB000000B591B0039002910192009387
:10281000039B002B03D14349B620FFF7B9F9039B73
:102820000993039B0F93099BDB881A46099B5B79ED
:1028300002FB03F3043B0893009A089B9A4203D3DC
:102840003849C420FFF7A4F9099BDB880793009B54
:102850001A1D079BB2FBF3F30E93009B0433079AF8
:10286000B3FBF2F2079901FB02F29B1A0D93019B55
:102870001A68009B1344089A9A4203D2089A009B54
:10288000D31A01E0019B1B680C93019B0C9A1A6000
:1028900005E00F9B1B680F930E9B013B0E930E9B55
:1028A000002BF6D100230B93079A0D9BD31A0A93A2
:1028B0000A9A0C9B934228BF13460A932AE0029A75
:1028C0000B9B134406930F9A0D9B134404330593FB
:1028D0009DF84830002B05D00A9A0599069803F018
:1028E000B3FC04E00A9A0699059803F0ADFC0023B6
:1028F0000D930F9B1B680F930C9A0A9BD31A0C9392
:102900000B9A0A9B13440B93079A0C9B934228BF84
:1029100013460A930C9B002BD1D100BF00BF11B00E
:102920005DF804FB5069000000B589B00590049182
:1029300003920293039B079307AA00230093029B31
:1029400004990598FFF75EFF079B039A9A4203D00C
:102950000349F620FFF71CF900BF09B05DF804FB3E
:102960005069000000B589B005900491039202936C
:10297000039B079307AA01230093029B04990598E0
:10298000FFF740FF079B039A9A4204D004494FF493
:102990008070FFF7FDF800BF09B05DF804FB00BFD1
:1029A0005069000082B00190019B9B6800229A60F0
:1029B000019B9B6800221A61019B9B6800225A615F
:1029C000019B9B680022DA60019B9B6800225A6091
:1029D000019B9B6800221A6000BF02B07047000094
:1029E00000B585B00190019800F00EF80390039BAC
:1029F000002B01D0039B00E0024B184605B05DF8A8
:102A000004FB00BFF869000086B00190164B0593E7
:102A1000164B04931FE0049A059BD31ADB10DA0FC0
:102A200013445B10DB00059A13440393039B1B685C
:102A30000293029A019B9A4202D9039B04930AE0F3
:102A4000029A019B9A4203D2039B0833059302E04A
:102A5000039B5B6804E0059A049B9A42DBD3002346
:102A6000184606B0704700BFCC6D0000E46E000051
:102A700000B589B001900091009B0793019B1B78E2
:102A80008DF80830019B5B680393019B9B68DBB268
:102A90008DF81030019BDB680593019B1B69DBB24D
:102AA0008DF81830074A079B52F823300649079AD9
:102AB00051F8221002AA1046984700BF09B05DF8ED
:102AC00004FB00BF9C070020AC07002000B58DB0C0
:102AD0000390029101920093039B1B780B930F4983
:102AE0000B9B019A41F823200D490B9B009A41F85A
:102AF000232000230A93039B181D019B002B01D068
:102B0000084A00E000220B9B029901F04BFA0A9060
:102B10000A9B18460DB05DF804FB00BF9C0700201F
:102B2000AC070020712A000082B003468DF8073000
:102B30009DF90730002B0CDB9DF8073003F01F02D6
:102B400005499DF907305B09012000FA02F241F8BE
:102B5000232000BF02B0704700E100E082B00346CE
:102B600000918DF807309DF90730002B0ADB009BA0
:102B7000DAB20C499DF907305201D2B20B4483F806
:102B800000230BE0009BDAB207499DF8073003F001
:102B90000F03043B5201D2B20B441A7600BF02B0BD
:102BA000704700BF00E100E000ED00E082B001905E
:102BB000019B1B0B5BB2184602B0704700B583B097
:102BC00003460A468DF8073013468DF806309DF807
:102BD0000630072B03D908496B20FEF7D9FF9DF873
:102BE00006209DF9073011461846FFF7B7FF00BFD2
:102BF00003B05DF804FB00BFE46E000000B583B0D5
:102C000003468DF807309DF907301846FFF78CFF13
:102C100000BF03B05DF804FB00B583B00346ADF818
:102C20000630BDF80630184600F026F803461B684B
:102C3000012B0CBF01230023DBB2184603B05DF863
:102C400004FB00B585B00346ADF80630BDF806308C
:102C5000184600F011F803461A4600231360BDF829
:102C60000630184600F008F803461B680393039BE0
:102C700000BF05B05DF804FB82B00346ADF8063036
:102C8000BDF8063003F1804303F5C043184602B097
:102C90007047000082B00190034A019BC2F80433E0
:102CA00000BF02B0704700BF0060004082B00190DA
:102CB000034A019BC2F8083300BF02B0704700BF4F
:102CC0000060004082B00190034BD3F80423019BC5
:102CD0001340184602B070470060004082B0019077
:102CE000084A019B03F5A27352F82330054943F0CB
:102CF0000102019B03F5A27341F8232000BF02B03B
:102D0000704700BF0060004082B00190084A019BFC
:102D100003F5A27352F82330054923F00102019B09
:102D200003F5A27341F8232000BF02B0704700BF33
:102D30000060004084B00390029113468DF8073084
:102D4000144A039B03F5A27352F82330114923F46C
:102D50004F3323F44073039A02F5A27241F82230F4
:102D60000C4A039B03F5A27352F82320029B1B021B
:102D700003F47C519DF807301B0403F440330B43EC
:102D800004491A43039B03F5A27341F8232000BFB3
:102D900004B070470060004082B00190054A019B7A
:102DA00003F5A27352F823301B0A03F03F031846C1
:102DB00002B070470060004082B00190064A019B5B
:102DC00003F5A27352F823301B0C03F00303DBB2AC
:102DD000184602B0704700BF0060004082B001900A
:102DE000044A019B03F5A273002142F8231000BF9F
:102DF00002B070470060004000B583B00190019BB5
:102E00001B68184600F03AF90346002B04D10B4921
:102E10004FF4F670FEF7BCFE019B1B681F2B02D817
:102E20004FF0A04306E0019B1B6803F01F02019BCB
:102E30001A60034B184603B05DF804FB146F0000E2
:102E40000003005000B585B00190084611461A46AF
:102E500003468DF803300B468DF8023013468DF88B
:102E6000013001AB1846FFF7C7FF03909DF8032020
:102E70009DF802305B001A439DF801309B001A4315
:102E80009DF818301B0242EA03019DF81C301B0418
:102E9000019A1943039B02F5E07243F8221000BF28
:102EA00005B05DF804FB00B585B003900B468DF8C6
:102EB0000B309DF80B30002201920022009200227C
:102EC00000210398FFF7BEFF00BF05B05DF804FBCB
:102ED00000B585B0039000230193002300930023E5
:102EE000012200210398FFF7ADFF00BF05B05DF898
:102EF00004FB00B585B0019001AB1846FFF77CFFDD
:102F00000390019A039B02F5E07253F8223023F0FC
:102F100002030293019A039B02F5E072029943F8BF
:102F2000221000BF05B05DF804FB00B585B001902C
:102F30000B468DF8033001AB1846FFF75DFF039099
:102F4000019A039B02F5E07253F82230019A23F4B0
:102F50004031039B02F5E07243F82210019A039B73
:102F600002F5E07253F822309DF803201204114656
:102F7000019A1943039B02F5E07243F8221000BF47
:102F800005B05DF804FB00B585B0019001AB1846B3
:102F9000FFF732FF0390039800F020F80246019BF0
:102FA00022FA03F303F00103184605B05DF804FBB1
:102FB00000B585B0019001AB1846FFF71DFF0390E7
:102FC000019A039B02F5E07253F822301B0C03F0C8
:102FD0000303DBB2184605B05DF804FB82B0019034
:102FE000019BD3F81035184602B0704788B00390A3
:102FF00002910192164A05AB92E8030083E80300B0
:10300000039B079319E0079B9B0020336B4453F805
:103010000C3CD3F82025019B1A60079B9B002033B2
:103020006B4453F80C3C019A1268C3F82025019BAD
:1030300004330193079B01330793039A029B1344C4
:10304000079A9A42DFD300BF00BF08B0704700BFA5
:10305000446F000000B585B0019001AB1846FFF742
:10306000CBFE0390019B012202FA03F31A46039B55
:10307000C3F8202500BF05B05DF804FB84B00190C3
:10308000019B5B09029300230393029B002B03D057
:10309000029B012B04D007E04FF0FF33039303E0C2
:1030A0004FF6FF73039300BF019B03F01F030193CF
:1030B000039A019B22FA03F303F00103002B14BFD0
:1030C00001230023DBB2184604B0704784B001909E
:1030D0000091009B0393019BDB080293019B03F08B
:1030E000070301930122019B02FA03F30399029A59
:1030F0000A4412781340184604B0704784B0019017
:103100000091009B0393019BDB080293019B03F05A
:1031100007030193039A029B13441B785AB20121BF
:10312000019B01FA03F35BB2134359B2039A029B6A
:103130001344CAB21A7000BF04B0704784B0019043
:103140000091009B0393019BDB080293019B03F01A
:1031500007030193039A029B13441B785AB201217F
:10316000019B01FA03F35BB2DB435BB2134059B23C
:10317000039A029B1344CAB21A7000BF04B070478E
:1031800082B001900C4A019B1344383393F900300C
:10319000002B09DB084A019B1344383393F90030B4
:1031A000072B01DC012300E0002303F00103DBB265
:1031B000184602B0704700BFBC07002082B00190E3
:1031C000064A019B1344383393F90030072BCCBFD8
:1031D00001230023DBB2184602B07047BC07002071
:1031E00082B00190064A019B1344383393F90030B2
:1031F000DB43DBB2DB09DBB2184602B0704700BF2D
:10320000BC07002084B00390029101928DF8033036
:10321000029B59B20E4A039B134438330A461A7074
:103220000B49029B019A41F823209DF8033083F05B
:103230000103DBB2002B08D0029B083B039A51B27A
:10324000034A13440A4683F8682000BF04B070475D
:10325000BC07002082B00190044A019B134438331C
:10326000FF221A7000BF02B0704700BFBC070020E9
:1032700000B583B0019004490198FFF73FFF00BFFC
:1032800003B05DF804FB00BF2A08002000B583B03E
:10329000019004490198FFF751FF00BF03B05DF8AA
:1032A00004FB00BF2A08002000B583B00190074945
:1032B0000198FFF70BFF0346002B14BF01230023E7
:1032C000DBB2184603B05DF804FB00BF2A080020FB
:1032D00082B00190044A019B1344383393F90030C3
:1032E000184602B0704700BFBC07002082B00190B2
:1032F000034A019B52F82330184602B0704700BFC2
:10330000BC07002084B00190074A019B1344683336
:1033100093F900308DF80F309DF80F3023F0C00383
:10332000184604B0704700BFBC07002084B001906D
:10333000074A019B1344683393F900308DF80F302E
:103340009DF80F309B09DBB2184604B0704700BFF0
:10335000BC07002000B589B00390029113468DF898
:103360000730FF238DF81F309DF80730002B01D068
:10337000002300E0082305939DF80730002B01D0BF
:10338000082300E00E230493059B069314E00F4AE4
:10339000069B52F82330B3F1FF3F0AD19DF8073066
:1033A000029A06990398FFF72DFF069B8DF81F30B0
:1033B00006E0069B01330693069A049B9A42E6D3E5
:1033C0009DF91F30184609B05DF804FBBC070020CA
:1033D00082B003468DF807309DF80730094A4FF058
:1033E000FF3142F823109DF80730072B07D99DF8CD
:1033F0000730083B034A1344FF2283F8682000BFCC
:1034000002B07047BC07002000B583B02D4B93F885
:103410007430002B03D008230193019B4EE000235E
:103420008DF8033011E09DF803301846FFF726FEB3
:103430000346002B04D09DF803301846FFF70AFF1F
:103440009DF8033001338DF803309DF803302F2BA6
:10345000E9D900238DF8033009E09DF803301846C0
:10346000FFF7B6FF9DF8033001338DF803309DF868
:1034700003300D2BF1D906220021134802F00DFF75
:103480001248FFF793FB034606211846FFF796FB09
:103490000E48FFF78BFB03461846FFF7AFFB4FF4D0
:1034A000BE70FFF7CEFB4FF00040FFF7F3FB054B7C
:1034B000012283F8742000230193019B184603B076
:1034C0005DF804FBBC0700202A08002000600040D3
:1034D00000B587B00390029101920398FFF7CEFDEB
:1034E0000346002B04D136494FF40C70FEF750FB15
:1034F000002305930398FFF773FE0346002B02D0C9
:103500000823059357E0029B9B78C3F34003DBB28B
:103510001A4601990398FFF71DFF03468DF81330F3
:103520009DF91330B3F1FF3F43D0029B9B78C3F367
:103530008003DBB283F00103DBB2002B13D0029BCC
:103540009B7803F00103DBB2002B03D00398FFF755
:10355000D0FC05E0029B5B7819460398FFF7A3FCBB
:103560000398FFF785FE029B9B7803F00203DBB212
:10357000002B08D09DF91300029B1B781A46039973
:10358000FFF7D8FB17E09DF91330083B0D4A1344B1
:1035900093F96810029B1B789B015AB29DF9133076
:1035A000083B0A4351B2074A13440A4683F868208D
:1035B00001E004230593059B184607B05DF804FB62
:1035C000546F0000BC07002000B589B001900B4685
:1035D0008DF803300198FFF751FD0346002B04D10D
:1035E0003A494FF41870FEF7D3FA0198FFF7F8FD47
:1035F0000346002B04D1354940F26120FEF7C8FA9A
:103600000198FFF7DBFD0346002B2AD00198FFF756
:103610005FFE0346083B1846FFF788FE03468DF819
:103620000F309DF80F30032B0BD10198FFF7ABFC47
:103630000346002B01D0032300E002238DF81F3046
:1036400008E09DF80F30012B01D1022300E0032395
:103650008DF81F309DF81F3019460198FFF765FC63
:1036600030E00198FFF78CFD0346002B2AD001982B
:10367000FFF72EFE03460693069B9BB240339BB298
:103680009B00ADF81630069B1846FFF727FBBDF8E8
:1036900016301846FFF7D5FA9DF80330002B11D0ED
:1036A0000198FFF715FE03461846FFF71FFE04902A
:1036B000049B002B06D00122069B02FA03F3184656
:1036C000FFF7E8FA00BF09B05DF804FB546F000093
:1036D00000B585B001900198FFF7D0FC0346002BA0
:1036E00004D11A4940F28B20FEF752FA0198FFF7F5
:1036F00077FD0346002B04D114494FF42370FEF7E5
:1037000047FA0198FFF75AFD0346002B04D0002129
:103710000198FFF70AFC15E00198FFF731FD034619
:10372000002B0FD00198FFF7D3FD03460393039BB3
:103730001846FFF7E9FA0122039B02FA03F3184641
:10374000FFF7B4FA00BF05B05DF804FB546F00004A
:1037500000B583B001900198FFF790FC0346002B61
:1037600004D120494FF42770FEF712FA0198FFF7B1
:1037700037FD0346002B04D11A4940F29D20FEF785
:1037800007FA0198FFF7A4FF0198FFF7F9FC034639
:10379000002B06D00198FFF79BFD03461846FFF764
:1037A0001DFB0198FFF780FD0346002B05D0019813
:1037B000FFF78EFB0198FFF769FD0198FFF710FDF9
:1037C0000346002B07D00198FFF782FD0346DBB2CA
:1037D0001846FFF7FDFD0198FFF73CFD00BF03B061
:1037E0005DF804FB546F000000B585B00190019AAC
:1037F00002210020FFF7FAFB002303930BE0039B59
:103800009B00019A13441B68002B01D0012306E0A2
:10381000039B01330393039B012BF0D9002318462C
:1038200005B05DF804FB000000B587B001900023EF
:1038300005935BE0344A059B1344683393F90030E9
:10384000B3F1FF3F4ED00598FFF75CFD049001995E
:103850000498FFF73BFC0346002B44D00598FFF784
:1038600065FD03468DF80F300498FFF7A1FB034672
:103870008DF80E309DF80E30022B01D1032300E0AD
:1038800002238DF80D309DF80D3019460498FFF78E
:103890004CFB0498FFF7DEFB0498FFF719FD034685
:1038A0001846FFF723FD0290029B002B1BD09DF8CA
:1038B0000F30032B0FD09DF80E30022B03D19DF853
:1038C0000F30012B07D09DF80E30032B0BD19DF844
:1038D0000F30022B07D19DF80F20029B1146049850
:1038E000984700E000BF059B01330593059B052B1E
:1038F000A0D90198FFF778FF0346002B97D100BFAE
:1039000000BF07B05DF804FBBC07002000B58BB01A
:103910000023089301AB00221A605A604FF48073B1
:10392000ADF81A30012309930023079321E0BDF875
:103930001A301846FFF770F90346002B0ED009988D
:10394000FFF7C0F90346002B08D0BDF81A3018461F
:10395000FFF777F9089A099B13430893099B5B00CB
:103960000993BDF81A300433ADF81A30079B0133C0
:103970000793079B072BDAD94FF4BE70FFF74CF97A
:103980000346002B0DD04FF4BE70FFF75AF9089B89
:1039900043F00043089301AB1A4602210020FFF7D1
:1039A00025FB089BDBB2002B29D0012309930023C0
:1039B000079321E0099A089B1340002B16D0079823
:1039C000FFF7EAF905900798FFF7F6F903468DF837
:1039D00013300798FFF78AFC0390039B002B05D058
:1039E0009DF81320039B114605989847099B5B009F
:1039F0000993079B01330793079B072BDAD9089B91
:103A0000002B03DA01AB1846FFF70EFF00BF0BB027
:103A10005DF804FB08B5064B1B68002B03D1054974
:103A20005120FEF7B5F8024B1B68984700BF08BD50
:103A300034080020A46F000082B00190019B044A6A
:103A4000934201D1034B00E00023184602B07047B7
:103A5000002000403408002000B587B0019000919C
:103A6000019B002B03D118497720FEF791F80198AC
:103A7000FFF7E2FF0590059B002B1ED000238DF879
:103A800013300020FEF72EF8059B1B79002B03D086
:103A900001238DF8133005E0059B009A1A60059B01
:103AA00001221A710020FEF731F89DF81330002B27
:103AB00003D011230393039B02E000230393039B92
:103AC000184607B05DF804FBA46F000000B585B090
:103AD0000190019B002B03D10A499B20FEF758F867
:103AE0000198FFF7A9FF0390039B002B05D0039BD0
:103AF00000221A60039B00221A7100BF05B05DF816
:103B000004FB00BFA46F000082B003468DF80730AD
:103B10009DF90730002B0CDB9DF8073003F01F02E6
:103B200005499DF907305B09012000FA02F241F8CE
:103B3000232000BF02B0704700E100E082B00346DE
:103B40008DF807309DF90730002B13DB9DF8073007
:103B500003F01F0209499DF907305B09012000FAB3
:103B600002F2203341F82320BFF34F8F00BFBFF391
:103B70006F8F00BF00BF02B0704700BF00E100E0E0
:103B800082B0034600918DF807309DF90730002B75
:103B90000ADB009BDAB20C499DF907305201D2B220
:103BA0000B4483F800230BE0009BDAB207499DF831
:103BB000073003F00F03043B5201D2B20B441A76D4
:103BC00000BF02B0704700BF00E100E000ED00E080
:103BD00082B00190019B1B0B5BB2184602B070478C
:103BE00000B583B003460A468DF8073013468DF8BA
:103BF00006309DF80630072B03D908496B20FDF7E6
:103C0000C7FF9DF806209DF9073011461846FFF7BB
:103C1000B7FF00BF03B05DF804FB00BFF06F00000A
:103C200000B583B003468DF807309DF9073018467C
:103C3000FFF76AFF00BF03B05DF804FB00B583B077
:103C400003468DF807309DF907301846FFF776FFD9
:103C500000BF03B05DF804FB84B001900B46ADF8E3
:103C60000230BDF80230019A134400221A60BDF8F8
:103C70000230019A13441B680393039B00BF04B0F6
:103C8000704782B001900B46ADF80230BDF80230AB
:103C9000019A13441B68002B14BF01230023DBB2DD
:103CA000184602B0704782B001900091019B009AC3
:103CB000C3F8042300BF02B0704782B001900091A6
:103CC000019B009AC3F8082300BF02B0704782B07E
:103CD0000190019B0122C3F8002500BF02B070478C
:103CE00082B00190019B0022C3F8002500BF02B002
:103CF000704784B00390029101920093039B029A53
:103D0000C3F80825039B019AC3F80C25039B009A6E
:103D1000C3F8102500BF04B0704782B001900B4675
:103D20008DF803309DF80320019BC3F81C2500BFCC
:103D300002B0704782B00190019BD3F81835DBB216
:103D4000184602B0704782B001900091009A019B22
:103D5000C3F8242500BF02B0704784B001900B4621
:103D60008DF8033013468DF802309DF80230002B99
:103D700014BF01230023DBB203939DF80330032B10
:103D800010D0032B13DC012B02D0022B05D00EE048
:103D9000039B43F0020303930AE0039B43F00403F5
:103DA000039305E0039B43F00603039300E000BF89
:103DB000019B039AC3F8542500BF04B0704700006C
:103DC00000B583B00190019B1B68184600F0C2F853
:103DD0000346002B04D10B494FF4F670FDF7D8FED3
:103DE000019B1B681F2B02D84FF0A04306E0019BEC
:103DF0001B6803F01F02019B1A60034B184603B0B7
:103E00005DF804FB207000000003005000B585B091
:103E10000190084611461A4603468DF803300B46BA
:103E20008DF8023013468DF8013001AB1846FFF7CC
:103E3000C7FF03909DF803209DF802305B001A43F2
:103E40009DF801309B001A439DF818301B0242EA8E
:103E500003019DF81C301B04019A1943039B02F5D2
:103E6000E07243F8221000BF05B05DF804FB00B516
:103E700085B00390002301930023009300230122C7
:103E800001210398FFF7C2FF00BF05B05DF804FBF6
:103E900000B585B003900B468DF80B309DF80B30C4
:103EA0000022019200220092002200210398FFF7D5
:103EB000ADFF00BF05B05DF804FB00B585B0039011
:103EC0000023019300230093002301220021039883
:103ED000FFF79CFF00BF05B05DF804FB00B585B09F
:103EE000019001AB1846FFF76BFF0390019B012285
:103EF00002FA03F31946039800F018F800BF05B062
:103F00005DF804FB00B585B0019001AB1846FFF7E2
:103F100057FF0390019B012202FA03F3194603980D
:103F200000F00EF800BF05B05DF804FB82B0019010
:103F30000091019B009AC3F8082500BF02B07047AA
:103F400082B001900091019B009AC3F80C2500BF3C
:103F500002B0704784B00190019B5B09029300237B
:103F60000393029B002B03D0029B012B04D007E09C
:103F70004FF0FF33039303E04FF6FF73039300BF4B
:103F8000019B03F01F030193039A019B22FA03F3A1
:103F900003F00103002B14BF01230023DBB21846FA
:103FA00004B0704700B58DB0059004910392029360
:103FB000049B002B03D170495320FDF7E9FD059BBD
:103FC0001B791A462C2302FB03F36C4A1344099312
:103FD000099B1B7F002B03D008230793079BC7E097
:103FE000059B1A68059B1B791946654B53F82130D0
:103FF00019461046FFF730FD0346002B03D011236E
:104000000793079BB4E0099B039A1A60099B029AE5
:104010005A60049B1B7B012B05D8049B1B78184618
:10402000FFF770FF04E0049B1B781846FFF756FF6C
:10403000049B1B7818460023019300230093002360
:1040400000220121FFF7E2FE049B5B78FF2B09D0E1
:10405000049B5B780B930B98FFF754FF0B98FFF7CB
:1040600006FF02E04FF0FF330B93049B9B78FF2B7E
:1040700007D0049B9B780A9301210A98FFF708FF59
:1040800002E04FF0FF330A93059B1B791846049B0F
:1040900099783A4A2C2300FB03F313441F330A4652
:1040A0001A70049BDB78FF2B09D0049BDB78184641
:1040B000FFF714FF049BDB781846FFF7D8FE059B3B
:1040C0001B791846049BD9782C4A2C2300FB03F358
:1040D00013441E330A461A70059B1B680893049B01
:1040E0001B7819460A9B0B9A0898FFF702FE049B5F
:1040F0009B6819460898FFF726FE049B197B049BD2
:104100005B7B1A460898FFF728FE059B1B7918462B
:10411000049B5979194A2C2300FB03F313442033E1
:104120000A461A700898FFF7D2FD099B1B68002BFE
:1041300015D0059B1B681846FFF74AFD03461A4633
:10414000049B1B7919461046FFF74AFD059B1B6827
:104150001846FFF73DFD03461846FFF761FD099B32
:1041600000225A77099B01221A7700230793079BA5
:1041700018460DB05DF804FB547000003C080020A8
:104180009C70000000B585B00190019B1B791A4618
:104190002C2302FB03F31D4A13440393039B1B7F51
:1041A000002B03D11A49C820FDF7F2FC039B1B68C2
:1041B000002B08D0019B1B681846FFF709FD03463A
:1041C0001846FFF73BFD019B1B680293039B1B688E
:1041D000002B03D004210298FFF76FFD039BDB7FC8
:1041E000FF2B04D0039BDB7F1846FFF766FE029887
:1041F000FFF776FD019B1B681846FFF767FC039BE2
:1042000000221A7700BF05B05DF804FB3C080020CF
:104210005470000000B583B00190019B9B7FFF2B81
:1042200004D0019B9B7F1846FFF758FE019B00229C
:104230005A77019B00221A72019B1B68019A02F1B6
:104240000800019A52681146984700BF03B05DF814
:1042500004FB00B585B0019000910198FFF76AFD5D
:1042600003468DF80B30009B5A6A009B9B699A426B
:1042700008D2009B5A69009B5B6A13449DF80B208F
:10428000D2B21A70009B5B6A5A1C009B5A62009B58
:104290005B6A01330393009B93F82830002B0FD007
:1042A000009B1B69039A9A4202D2009B039A1A61EF
:1042B000009B9B69039A9A4202D2009B039A9A61DF
:1042C000009B1B69039A9A420AD2009BDA68039BFF
:1042D00013441B7819460198FFF71FFD01231FE0C7
:1042E000009B9B69039A9A4208D2009B93F8203066
:1042F00019460198FFF711FD012311E0009B5A6A4E
:10430000009B1B699A4205D3009B5A6A009B9B69DC
:104310009A4201D2012300E0002303F00103DBB243
:10432000184605B05DF804FB00B585B00390029116
:104330000192029B00225A6204210398FFF7BDFC00
:104340004FF484710398FFF787FC019B5B68002B97
:1043500003D0019B1B681B7802E0029B93F820307E
:1043600019460398FFF7D9FC019B5B68012B08D91C
:10437000019B1B6801331B7819460398FFF7CDFC9E
:104380000AE0019BDB68012B06D9029B93F82030E1
:1043900019460398FFF7C1FC029B1B68002B04D051
:1043A00004210398FFF77FFC20E000BF4FF48471E5
:1043B0000398FFF766FC034683F00103DBB2002B92
:1043C000F4D14FF484710398FFF746FC02990398E7
:1043D000FFF73FFF0346002BE7D1029B9B7FFF2B9C
:1043E00004D0029B9B7F1846FFF778FD00BF05B005
:1043F0005DF804FB10B586B0039002910192039B17
:104400001B791A462C2302FB03F3304A134405930D
:10441000059B1B7F002B04D12D4940F25F10FDF757
:10442000B7FB029B1B68002B08D1029B5B68002B2B
:1044300004D027494FF4B070FDF7AAFB029B9B689C
:10444000002B08D1029BDB68002B04D0204940F2EE
:104450006110FDF79DFB00230493059B5B7FDBB29E
:10446000002B03D011230493049B2CE0059B1B68B5
:10447000002B02D0059B01225A77059B029A03F17B
:104480000C0413460FCB84E80F00059B002283F831
:104490002820059B9B7FFF2B04D0059B9B7F184604
:1044A000FFF730FD019B002B05D0059B00225A77BA
:1044B0000623049306E0039B1B68029A059918469D
:1044C000FFF732FF049B184606B010BD3C080020E1
:1044D0005470000000B583B001900091009B1B68F0
:1044E000002B04D10D494FF4CA70FDF751FB4FF476
:1044F00084710198FFF7B0FB00990198FFF7A9FEBE
:10450000034683F00103DBB2002B02D00098FFF7D3
:1045100081FE00BF03B05DF804FB00BF54700000D3
:1045200008B503490348FFF7D5FF00BF08BD00BF2A
:104530003C0800200030004008B503494FF04020FF
:10454000FFF7C8FF00BF08BD6808002000B585B0B0
:104550000190019B002B0AD0074B43F0010303930A
:10456000019B9B010293039B0298984700E000BFC8
:1045700005B05DF804FB00BFA074000000B58FB06B
:1045800003900291009313468DF8073000230D939A
:10459000029B05939DF807300693009B07939DF8B7
:1045A00040300893039B043305A900221846FFF707
:1045B00021FF0D900D9B18460FB05DF804FB000025
:1045C00000B583B00190019B1B68184600F0AEF85F
:1045D0000346002B04D10B494FF4F670FDF7D8FACF
:1045E000019B1B681F2B02D84FF0A04306E0019BE4
:1045F0001B6803F01F02019B1A60034B184603B0AF
:104600005DF804FB8C7200000003005000B585B01B
:104610000190084611461A4603468DF803300B46B2
:104620008DF8023013468DF8013001AB1846FFF7C4
:10463000C7FF03909DF803209DF802305B001A43EA
:104640009DF801309B001A439DF818301B0242EA86
:1046500003019DF81C301B04019A1943039B02F5CA
:10466000E07243F8221000BF05B05DF804FB00B50E
:1046700085B00390002301930023009300230122BF
:1046800001210398FFF7C2FF00BF05B05DF804FBEE
:1046900000B585B0019001AB1846FFF791FF03907C
:1046A000019B012202FA03F31946039800F02AF84D
:1046B00000BF05B05DF804FB00B585B0019001AB0B
:1046C0001846FFF77DFF0390019B012202FA03F3D6
:1046D0001946039800F020F800BF05B05DF804FB10
:1046E00000B583B001900091009B002B03D101988D
:1046F000FFF7E2FF02E00198FFF7CAFF00BF03B037
:104700005DF804FB82B001900091019B009AC3F810
:10471000082500BF02B0704782B001900091019B54
:10472000009AC3F80C2500BF02B0704784B0019016
:10473000019B5B09029300230393029B002B03D090
:10474000029B012B04D007E04FF0FF33039303E0FB
:104750004FF6FF73039300BF019B03F01F03019308
:10476000039A019B22FA03F303F00103002B14BF09
:1047700001230023DBB2184604B0704700B583B0B4
:104780000190019B002B0AD04FF47A70FFF7DEFEF8
:10479000019B013B0193019B002BF5D100E000BF81
:1047A00003B05DF804FB000008B5364B5B88032BB3
:1047B0000AD9354A354BD31ADB081B0443F00403EE
:1047C00033491846FCF73EFB00F06AFF2D4B5B882F
:1047D000032B0BD92C4A2D4BD31ADB081B0443F0B7
:1047E00004032C491846FCF72DFB00E000BF012113
:1047F0000F2001F08FFC0346002B0FD1214B5B886B
:10480000032B2ED9204A214BD31ADB081B0443F07B
:10481000040321491846FCF715FB22E0194B5B887D
:10482000032B0AD9184A194BD31ADB081B0443F08F
:1048300004031A491846FCF705FB124B5B88032B4F
:104840000AD9114A114BD31ADB081B0443F00403A5
:1048500013491846FCF7F6FA4FF47A70FFF78EFF0B
:10486000C5E7084B5B88032B0AD9074A074BD31AC5
:10487000DB081B0443F004030A491846FCF7E2FA7C
:1048800000BF08BD140000208863000060630000C2
:10489000BC720000D8720000F072000010730000BB
:1048A000347300004873000008B5364B5B88032B57
:1048B0000AD9354A354BD31ADB081B0443F00403ED
:1048C00033491846FCF7BEFA00F0B6FF2D4B5B8863
:1048D000032B0BD92C4A2D4BD31ADB081B0443F0B6
:1048E00004032C491846FCF7ADFA00E000BF012193
:1048F0000E2001F00FFC0346002B0FD1214B5B88EB
:10490000032B2ED9204A214BD31ADB081B0443F07A
:10491000040321491846FCF795FA22E0194B5B88FD
:10492000032B0AD9184A194BD31ADB081B0443F08E
:1049300004031A491846FCF785FA124B5B88032BCF
:104940000AD9114A114BD31ADB081B0443F00403A4
:1049500013491846FCF776FA4FF47A70FFF70EFF0A
:10496000C5E7084B5B88032B0AD9074A074BD31AC4
:10497000DB081B0443F004030A491846FCF762FAFB
:1049800000BF08BD140000208863000060630000C1
:104990006C73000088730000A0730000C0730000F7
:1049A00034730000E473000000B587B04A4B5B88A5
:1049B000022B0AD9494A4A4BD31ADB081B0443F09D
:1049C000030348491846FCF73DFA0120FFF74FFE64
:1049D00001210120FFF784FE00BFFCF78FFA034698
:1049E000002BFAD1FEF710FD0590059B0493049B64
:1049F000002B04D03C4A6D210498FCF7AFFF4FF424
:104A000080410020FBF77EFE0390039B002B04D027
:104A1000354A6F210398FCF7A1FFFBF709FE2E4BE7
:104A20005B88022B0AD92D4A2D4BD31ADB081B04B5
:104A300043F003032B491846FCF704FA264B5B8826
:104A4000022B0AD9254A264BD31ADB081B0443F054
:104A5000030324491846FCF7F5F9FFF7A5FE0021EA
:104A60001C20FEF7B1FD1C20FEF772FE00F0DCFEFC
:104A7000FFF71AFF07231A4600211C4801F00DFC1E
:104A80001B4B00221A70072207230093174B19496A
:104A90001948FFF773FD0290029B002B06D0124AC3
:104AA0008B210298FCF75AFF00E020BF104B1B78C7
:104AB000DBB283F00103DBB2002BF6D100BFFCF7C1
:104AC0001DFA0346002BFAD10020FCF7E1FEC820B6
:104AD000FFF754FECEE700BF1400002088630000FB
:104AE00060630000287400004074000098080020F3
:104AF00094080020BC0000208474000082B0204B89
:104B00000193019B02221A61019B02225A61019BBF
:104B10001C4A9A61019B1C4ADA61019B4FF40072A6
:104B20001A62019B00229A62019B00225A62019B39
:104B30000022DA62019B134A9A64019B134ADA64E9
:104B4000019B10221A65019B00229A65019B00229D
:104B50005A65019B0022DA65019B07330C4A1068F5
:104B60001860019B0B4A10681860918892799980AF
:104B70009A71019B20229A7100BF02B0704700BF5A
:104B8000A0080020A874000018090020180B0020BD
:104B9000B4740000B874000000B589B003900291AD
:104BA000019200230693039BDB680593039B1B691B
:104BB0000493049A059B9A4205D9049A059BD31A3B
:104BC000013B079307E0039B9A680499059BCB1A66
:104BD0001344013B0793039B9A68059BD31A079ADA
:104BE000934228BF13460793079A019B934228BF1D
:104BF00013460793039B5A68059B1344079A02992F
:104C0000184601F021FB069A079B13440693029A6B
:104C1000079B13440293019A079BD31A0193059AA9
:104C2000079B13440593039B9B68059A9A4201D105
:104C300000230593039B059ADA60019B002BB5D1F5
:104C4000069B184609B05DF804FB00B589B00390D7
:104C500002910192039BDB680793039B9A68079B71
:104C6000D31A0693069A019B9A420ED9039B5A685F
:104C7000079B1344019A0299184601F0E5FA079A36
:104C8000019B1A44039BDA601AE0069B0593039B81
:104C90005A68079B1344059A0299184601F0D4FA02
:104CA000019A069BD31A0593039B5868029A069BA8
:104CB0001344059A194601F0C7FA039B059ADA6076
:104CC00000BF09B05DF804FB86B00190019B1B6931
:104CD0000493019BDB680393049A039B9A4208D8D0
:104CE000019B9A68039BD21A049B1344013B0593D2
:104CF00004E0049A039BD31A013B0593059B1846D5
:104D000006B0704700B589B0039002910192029BF2
:104D10000693039B5A1C13465B001344DB00204A96
:104D200013440593059B5B69022B29D0022B2ED8D7
:104D3000002B02D0012B13D029E00598FFF7C4FF08
:104D40000490049A019B9A4202D20023079321E027
:104D5000019B0793019A06990598FFF776FF19E0E2
:104D60000598FFF7B1FF0490019A049B934228BF76
:104D700013460793079A06990598FFF766FF09E01F
:104D8000019A06990598FFF707FF079002E00023B4
:104D9000079300BF079B184609B05DF804FB00BFEE
:104DA000A008002008B5FFF7A9FE00BF08BD00005D
:104DB000BFF34F8F00BF064BDB6803F4E06204498A
:104DC000044B1343CB60BFF34F8F00BF00BFFDE721
:104DD00000ED00E00400FA0582B0164B1B68019359
:104DE000154B1B680093019B082B1FD1009B052BC3
:104DF0001AD801A252F823F0114E0000154E0000FF
:104E0000194E00001D4E0000214E0000254E0000EE
:104E100001230CE001230AE0012308E0012306E05E
:104E2000012304E0012302E0012300E000231846EF
:104E300002B07047300100103401001082B0164BF0
:104E40001B680193154B1B680093019B082B1FD116
:104E5000009B052B1AD801A252F823F0754E0000D2
:104E6000794E00007D4E0000814E0000854E00000E
:104E7000894E000001230CE001230AE0012308E031
:104E8000012306E0012304E0012302E0012300E006
:104E90000023184602B070473001001034010010A2
:104EA00082B0164B1B680193154B1B680093019B46
:104EB000082B1FD1009B052B1AD801A252F823F012
:104EC000D94E0000DD4E0000E14E0000E54E00002E
:104ED000E94E0000ED4E000001230CE000230AE043
:104EE000002308E0002306E0002304E0002302E0A2
:104EF000002300E00023184602B070473001001084
:104F00003401001082B0164B1B680193154B1B68CF
:104F10000093019B082B1FD1009B052B1AD801A2DF
:104F200052F823F03D4F0000414F0000454F000074
:104F3000494F00004D4F0000514F000001230CE08D
:104F400000230AE0002308E0002306E0002304E039
:104F5000002302E0002300E00023184602B070475F
:104F6000300100103401001082B0164B1B68019311
:104F7000154B1B680093019B082B1FD1009B052B31
:104F80001AD801A252F823F0A14F0000A54F00004B
:104F9000A94F0000AD4F0000B14F0000B54F000019
:104FA00001230CE000230AE0002308E0002306E0D0
:104FB000002304E0002302E0002300E00023184661
:104FC00002B07047300100103401001082B0164B5F
:104FD0001B680193154B1B680093019B082B1FD185
:104FE000009B052B1AD801A252F823F005500000AF
:104FF000095000000D500000115000001550000035
:105000001950000001230CE000230AE0002308E00F
:10501000002306E0002304E0002302E0002300E078
:105020000023184602B07047300100103401001010
:1050300082B0164B1B680193154B1B680093019BB4
:10504000082B1FD1009B052B1AD801A252F823F080
:10505000695000006D500000715000007550000054
:10506000795000007D50000001230CE001230AE08C
:10507000012308E0012306E0012304E0012302E00C
:10508000012300E00023184602B0704730010010F1
:105090003401001082B0164B1B680193154B1B683E
:1050A0000093019B082B1FD1009B052B1AD801A24E
:1050B00052F823F0CD500000D1500000D550000030
:1050C000D9500000DD500000E150000000230CE04A
:1050D00000230AE0002308E0002306E0012304E0A7
:1050E000012302E0012300E00023184602B07047CC
:1050F000300100103401001008B5FFF7CBFF034664
:10510000002B07D04FF010234FF08042D3F8083225
:10511000C2F8583500BF08BD00BF044BD3F80034B7
:10512000002BFAD000BF00BF704700BF00E0014075
:1051300000B583B00190054A019BC2F80435FFF722
:10514000EBFF00BF03B05DF804FB00BF00E00140CF
:10515000024B034A1A6000BF704700BFC400002022
:105160000090D00308B5FFF737FE0346002B0ED0A2
:105170004FF080430022C3F80C214FF080430022FF
:10518000C3F810214FF080430022C3F83825FFF701
:1051900055FE0346002B76D04FF08053814AD3F85A
:1051A0000434C2F820354FF080537E4AD3F80834D7
:1051B000C2F824354FF080537A4AD3F80C34C2F841
:1051C00028354FF08053774AD3F81034C2F82C3585
:1051D0004FF08053734AD3F81434C2F830354FF08F
:1051E0008053704AD3F81834C2F834354FF08053E6
:1051F0006C4AD3F81C34C2F840354FF08053694AEA
:10520000D3F82034C2F844354FF08053654AD3F8C0
:105210002434C2F848354FF08053624AD3F828341A
:10522000C2F84C354FF080535E4AD3F82C34C2F8A4
:1052300050354FF080535B4AD3F83034C2F85435C0
:105240004FF08053574AD3F83434C2F860354FF0EA
:105250008053544AD3F83834C2F864354FF0805341
:10526000504AD3F83C34C2F868354FF080534D4A69
:10527000D3F84034C2F86C354FF08053494AD3F824
:105280004434C2F87035FFF70BFE0346002B02D002
:10529000454B464A1A60FFF735FE0346002B03D004
:1052A000434BFB22C3F81825FFF75EFE0346002B95
:1052B0000AD0404B1B6823F00F023F4B1B6803F0E2
:1052C0000F033C4913430B60FFF780FE0346002B9E
:1052D00003D03A4B4FF400721A60FFF7A9FE034661
:1052E000002B0DD04FF08043D3F8003403F00103BE
:1052F000002B05D04FF080436FF00102C3F800246B
:105300002F4BD3F888302E4A43F47003C2F888300C
:10531000BFF34F8F00BFBFF36F8F00BFFFF7ECFEEF
:105320004FF01023D3F80C3203F00103012B13D1FB
:105330000120FFF7FDFE4FF01023D3F80C324FF0A1
:10534000102223F00103C2F80C32FFF7E5FE002023
:10535000FFF7EEFEFFF72CFD4FF01023D3F80032DD
:10536000002B05DB4FF01023D3F80432002B15DAA5
:105370000120FFF7DDFE4FF010231222C3F80022B8
:10538000FFF7CAFE4FF010231222C3F80422FFF7E2
:10539000C3FE0020FFF7CCFEFFF70AFDFFF7D8FEA3
:1053A00000BF08BD00C000408C560040488103008B
:1053B00000F00040E40E0040580200104096024009
:1053C00000ED00E000B585B00190019B002B0AD0F4
:1053D000074B43F001030393019B9B010293039B43
:1053E0000298984700E000BF05B05DF804FB00BFDD
:1053F000A075000000B583B00190019B002B0AD07E
:105400004FF47A70FFF7DEFF019B013B0193019B94
:10541000002BF5D100E000BF03B05DF804FB0000F5
:1054200000B583B00190019B1B68184600F0B9F8E5
:105430000346002B04D10B494FF4F670FCF7A8FB90
:10544000019B1B681F2B02D84FF0A04306E0019B75
:105450001B6803F01F02019B1A60034B184603B040
:105460005DF804FBC07400000003005000B585B077
:105470000190084611461A4603468DF803300B4644
:105480008DF8023013468DF8013001AB1846FFF756
:10549000C7FF03909DF803209DF802305B001A437C
:1054A0009DF801309B001A439DF818301B0242EA18
:1054B00003019DF81C301B04019A1943039B02F55C
:1054C000E07243F8221000BF05B05DF804FB00B5A0
:1054D00085B0039000230193002300930023012251
:1054E00001210398FFF7C2FF00BF05B05DF804FB80
:1054F00000B585B0019001AB1846FFF791FF03900E
:10550000019B012202FA03F31946039800F035F8D3
:1055100000BF05B05DF804FB00B585B0019001AB9C
:105520001846FFF77DFF0390019B012202FA03F367
:105530001946039800F02BF800BF05B05DF804FB96
:1055400000B585B0019001AB1846FFF769FF0390E5
:10555000039800F00AF80246019B22FA03F303F0D5
:105560000103184605B05DF804FB82B00190019B71
:10557000D3F81035184602B0704782B00190009100
:10558000019B009AC3F8082500BF02B0704782B0A3
:1055900001900091019B009AC3F80C2500BF02B056
:1055A000704784B00190019B5B0902930023039331
:1055B000029B002B03D0029B012B04D007E04FF08D
:1055C000FF33039303E04FF6FF73039300BF019B88
:1055D00003F01F030193039A019B22FA03F303F0E4
:1055E0000103002B14BF01230023DBB2184604B0D3
:1055F000704700B583B00190019B04331846FEF755
:10560000C1FD00BF03B05DF804FB00B58FB003908F
:105610000291009313468DF8073000230D93029BEF
:1056200005939DF807300693009B07939DF8403043
:105630000893039B043305A900221846FEF7DAFEFF
:105640000D900D9B18460FB05DF804FB00B583B0BC
:1056500001900B468DF803300198FFF771FF034668
:10566000002B03D01020FFF743FF02E01020FFF7CC
:1056700053FF00BF03B05DF804FB000082B001904F
:105680000091019B1B78002B03D1044B01221A705F
:1056900000E000BF00BF02B0704700BFC80000209C
:1056A00010B588B000230793222000F01DFD514B58
:1056B0005B88022B0AD9504A504BD31ADB081B04D3
:1056C00043F003034E491846FBF7BCFB00BFFBF752
:1056D00015FC0346002BFAD14A4A04AB1268114666
:1056E00019800233120C1A7003238DF81130414BCC
:1056F0005B88022B0AD9404A404BD31ADB081B04B3
:1057000043F0030340491846FBF79CFB00BFFBF73F
:10571000F5FB0346002BFAD104AB3C4A19461C208A
:10572000FDF7D6FE0790079B0693069B002B04D03F
:10573000374A5F210698FCF711F92E4B5B88022B44
:105740000AD92D4A2D4BD31ADB081B0443F003035F
:1057500030491846FBF776FB00BFFBF7CFFB03464B
:10576000002BFAD101211C20FDF72EFF2A4B6C469D
:105770000FCB84E80F004FF00073029300238DF8E5
:105780000C3022238DF8033010238DF802301123C2
:105790008DF801300F238DF8003000238DF80D3087
:1057A000694600231D4A1E48FDF790F90790079BA4
:1057B0000593059B002B04D0154A6E210598FCF734
:1057C000CDF80C4B5B88022B0AD90B4A0B4BD31A32
:1057D000DB081B0443F0030312491846FBF732FBB6
:1057E00000BFFBF78BFB0346002BFAD100BF00BFC5
:1057F00008B010BD14000020886300006063000042
:10580000F074000058750000F87400004D56000058
:1058100000750000487500005C7500007D560000B2
:10582000907500005075000008B50248FFF7E1FED2
:1058300000BF08BD9075000010B588B00023079325
:10584000212000F051FC514B5B88022B0AD9504AB1
:10585000504BD31ADB081B0443F003034E49184690
:10586000FBF7F0FA00BFFBF749FB0346002BFAD128
:105870004A4A04AB1268114619800233120C1A709E
:1058800003238DF81130414B5B88022B0AD9404A23
:10589000404BD31ADB081B0443F00303404918466E
:1058A000FBF7D0FA00BFFBF729FB0346002BFAD128
:1058B00004AB3C4A19460320FDF70AFE0790079BFC
:1058C0000693069B002B04D0374A8B210698FCF7E1
:1058D00045F82E4B5B88022B0AD92D4A2D4BD31A43
:1058E000DB081B0443F0030330491846FBF7AAFA10
:1058F00000BFFBF703FB0346002BFAD10121032075
:10590000FDF762FE2A4B6C460FCB84E80F004FF088
:105910000073029300238DF80C3021238DF803309F
:105920000D238DF802300E238DF801300C238DF8F5
:10593000003000238DF80D30694600231D4A1E48B3
:10594000FDF7C4F80790079B0593059B002B04D037
:10595000154A9A210598FCF701F80C4B5B88022B3D
:105960000AD90B4A0B4BD31ADB081B0443F0030381
:1059700012491846FBF766FA00BFFBF7BFFA034669
:10598000002BFAD100BF00BF08B010BD14000020EA
:1059900088630000606300006C75000058750000AB
:1059A000747500004D560000007500007C75000005
:1059B0005C7500007D560000907500008475000045
:1059C00008B5034B5B7C1846FFF7A6FD00BF08BD7A
:1059D000280B002008B5034B5B7C1846FFF788FDB9
:1059E00000BF08BD280B002000B587B0FFF7E8FF17
:1059F000C0238DF80C3001238DF81730124B002294
:105A00001A709DF8172003A90023009300230F4864
:105A1000FFF7FBFD0490049B002B06D00C4AB62137
:105A20000498FBF79BFF00E020BF074B1B78DBB21D
:105A300083F00103DBB2002BF6D1FFF7CBFF00BFF1
:105A400007B05DF804FB00BFC8000020907500009F
:105A50000075000000B589B003468DF80F30FFF7E0
:105A6000AFFF03238DF814309DF80F308DF81530FB
:105A700000238DF8163003238DF81F3003238DF893
:105A80001E309DF81E2004AB0021184600F005FCD6
:105A9000144B00221A7004A89DF81F2005A99DF838
:105AA0001E30009303461048FFF7AFFD0690069B9B
:105AB000002B06D00D4ACE210698FBF74FFF00E0E1
:105AC00020BF084B1B78DBB283F00103DBB2002B55
:105AD000F6D1FFF77FFF9DF81230184609B05DF848
