:1000000000000420750300005D0300005F03000092
:1000100061030000630300006503000000000000AE
:100020000000000000000000000000006703000066
:1000300069030000000000006B0300006D03000076
:100040006F0300006F030000B518000039190000AD
:100050006F0300006F030000391700006F030000FA
:100060006F0300006F0300006F0300006F030000C8
:100070006F0300006F0300006F0300006F030000B8
:100080006F030000ED0E00006F0300006F0300001F
:100090006F0300006F0300006F0300006F03000098
:1000A0006F0300006F0300006F0300006F03000088
:1000B0006F0300006F03000000000000000000005C
:1000C0006F0300006F0300006F0300006F03000068
:1000D0006F0300006F0300006F0300006F03000058
:1000E0006F0300006F0300006F03000000000000BA
:1000F000000000006F030000000000006F0300001C
:1001000000000000000000000000000000000000EF
:1001100000000000000000000000000000000000DF
:1001200000000000000000000000000000000000CF
:1001300000000000000000000000000000000000BF
:1001400000000000000000000000000000000000AF
:10015000000000000000000000000000000000009F
:10016000000000000000000000000000000000008F
:10017000000000000000000000000000000000007F
:10018000000000000000000000000000000000006F
:10019000000000000000000000000000000000005F
:1001A000000000000000000000000000000000004F
:1001B000000000000000000000000000000000003F
:1001C000000000000000000000000000000000002F
:1001D000000000000000000000000000000000001F
:1001E000000000000000000000000000000000000F
:1001F00000000000000000000000000000000000FF
:10020000354936480A1A02D0072291438D463449AF
:1002100034480A1A06D00722914381F30988022242
:1002200082F3148830483149314A00F044F83148AB
:100230003149324A00F03FF831483249324A00F041
:100240003AF832483249334A00F035F832483349F7
:10025000334A00F030F833483349344A00F02BF881
:1002600033483449344A00F026F8344834490022EF
:1002700000F02CF833483449002200F027F83348C6
:100280003349091A082902DB002202604160314A21
:1002900090471F481F49884205D00268043003B4C4
:1002A000904703BCF7E700208646EC46002000217B
:1002B000294A9047FEE7884207D0521A05D00378B2
:1002C00001300B700131013AF9D17047884202D0F8
:1002D00002700130FAE770470000042000E00320BC
:1002E00000000420000004201C2B000078000020E7
:1002F000A4000020D0030000D00300001825000057
:100300001C2B000078000020780000203026000020
:100310003026000030260000302600003026000085
:100320003026000030260000302600001C2B000084
:10033000482B0000A4000020A4000020A4000020FE
:10034000A00A0020A00A0020A00A0020A00A002085
:10035000A02A00209D030000711C0000FEE7FEE7BC
:10036000FEE7FEE7FEE7FEE7FEE7FEE7FEE7FEE765
:1003700000F002B8FFF7FCBF0F484FF007018843B9
:1003800085460E4880470E48016841F470010160BF
:10039000BFF34F8FBFF36F8FFFF732BF09480A4992
:1003A0000A4A884207D0521A05D0037801300B70F0
:1003B0000131013AF9D17047000004201D1F0000EF
:1003C00088ED00E0B8250000000000207800002043
:1003D0007047000007B5054B0093054A4FF4807342
:1003E00000F033F803B05DF804FB00BFF503000034
:1003F000A50000202DE9F84388461446B2B10F4B02
:100400000F4E0325002743F00109224608EB0701A0
:10041000002001F01BFD0744241A48B933782BB1A2
:100420004FF47A40C847013D02D13570BDE8F883EA
:1004300001233370002CE8D1F8E700BF302600001C
:10044000A4000020704701F031BDF0B595B01D4605
:10045000164608460C4601F03FF81A9B0D93CDE96D
:10046000086500252B46082205A920460A958DF827
:100470002C500C9501F04CF8079B0293069B0393BC
:100480009DF814308DF8115003F00302012A1DD19C
:10049000BDF81420059DC3F3C203C2F383168DF883
:1004A0001030B20008230EA9204601F031F8C5F340
:1004B000952508AB0093324602AB0EA9284600F002
:1004C000CFFB204601F00CF815B0F0BD022AF8D1A0
:1004D000BDF81650C3F3C203C5F389158DF810306B
:1004E0000827082D2E4628BF08263B4632460EA96F
:1004F000204601F00DF8AD1B08AB02AA31460EA84C
:10050000374400F011FC002DEBD1DAE708B5FFF716
:100510009AFF0448042100F0EFFA034B01225A71BC
:1005200008BD00BF9025000078000020037813F07C
:10053000040216D003F00303012B03D0022B09D0D1
:10054000012070470A6800880232C0F38310024419
:100550000A60F5E70B684288023303EB92130B60E5
:10056000EEE71046704700002DE9F04FDFF810A1CC
:100570000F4685B00446861C0020154600F0B2FCEC
:10058000DAF804203A60DAF8083003F580739B1A31
:100590000AF21C470AF583690AF21448B34219D3D8
:1005A0000020002D68D004F00F039B0143F00503E9
:1005B00063F30F00DAF80430DAB2033233444AF856
:1005C00022000020CAF8043000F08EFC012005B0A3
:1005D000BDE8F08F0121384600F0B5FC484600F038
:1005E000CAFC404600F0C7FCDAF808000090C0B230
:1005F00003300AEB80006946FFF798FF009B30BB91
:10060000DAB20AEB8202D16801919A1C0133DBB2A3
:100610000AEB83030092D3F80CB001F00303012B23
:1006200022D0022B15D08346404600F0A7FC10B123
:10063000009BCAF808305946384600F084FCDAF8C6
:100640000830DAF8042003F580739B1AA6E7D8B2C5
:10065000CEE7BDF80630C3F3891303334FEA1B4BD3
:1006600002EB93030093DFE7BDF80430C3F3831379
:100670004FEA1B4B1344F5E7A40544F0060099E745
:100680007802002030B599B10A4B0B4A0B49D21AB7
:10069000D20800239A4201D1052006E031F8235008
:1006A0000468A54202D10360002030BD0133F1E7A8
:1006B0000846FAE7182500009025000000000020F9
:1006C0002DE9F84F1E4B1F4801221A7000F0BDFEA5
:1006D000814690BB1C48DFF880801C4CDFF87CA072
:1006E00000F020FFA4EB0804E4084D46A54208D121
:1006F0000023174A19469C421AD022F823100133CE
:10070000F9E700273E4608EBC50BB54209D058F87B
:100710003610DBF80000142201F02CFE0028C8BFC0
:1007200001370136B442F0D12AF825700135DDE7F2
:100730000848A200002101F06AFE4846BDE8F88F93
:1007400078020020A02500007C26000090250000F3
:10075000020000203C0000201825000000000020BE
:1007600007B5019001A8FFF78DFF30B9019A044B3E
:1007700053F8320003B05DF804FB0020FAE700BF35
:1007800018250000094B013903EBC000032909D8E3
:10079000DFE801F00A020406042070470079704780
:1007A00040797047002070470220704718250000EC
:1007B00030B5124C00EB400054F8215002FA00F31F
:1007C000072202FA00F06B400D4A03406B40C3F36E
:1007D000821044F8213002EB8101C3F3C20282424D
:1007E00038BF0246C3F34220824203F0070338BFFA
:1007F0000246934238BF13464B8030BD3C00002078
:1008000000000020034BD3E90130C31A584258417D
:10081000704700BF780200202DE9F04385B0FFF754
:10082000F1FF0546002840F00A81864CC4F8180400
:10083000BFF34F8FA3680093DBB2033304EB830055
:100840006946FFF773FE009B18B1D4F81824002AFC
:1008500063D0DAB2991C013304EB8202DBB204EB01
:100860008303D268DB68029302F00303022B019238
:1008700000915DD1BDF8063073489DF80450C3F374
:1008800089184746502F28BF502707F1080167F302
:100890008F13C1F30901ADF8063000F0EEFDC5F38A
:1008A000C2050646002800F0B18000F015FE0023C6
:1008B000082201A9304600F021FE0099CB43DBB2AB
:1008C0000133C9B20331B7EB830F4FEA830204EB64
:1008D00081012AD95FFA82F90823A7EB090730467C
:1008E00000F00CFEFFB209F10803584903F0FC03C5
:1008F0003A46304600F002FE009B08F1030803EB85
:1009000098030093D4F81834002B49D1D4F810740C
:10091000DFF84C914FF0070867E062689A428BD885
:10092000A260284605B0BDE8F08308233A46E0E718
:10093000012B6BD1BDF804504348C5F38311062940
:1009400028BF062161F38915023101F00F018900EA
:10095000ADF8045000F091FDC5F3C205064600282D
:1009600054D000F0B9FD0023082201A9304600F060
:10097000C5FD0027BDF80420C2F38312BB009742D7
:1009800003F10803BED200994A1CC9B20331009298
:1009900004EB81010422304600F0B0FD0137E9E7A5
:1009A000304600F09DFDFFF72DFF80F00100C5B23D
:1009B000B7E7FB685A79B2B11B79BDF8081003EBB1
:1009C000430259F8211008FA02F3052D03EA010346
:1009D00023FA02F308BF0325AB4204D33B68314638
:1009E0001B6838469847FB681F68002FE1D13046E6
:1009F00000F076FD384600F075FAD4F818340BB9DB
:100A0000009BA360002000F06FFACCE7D4F81044FC
:100A100074B90F4B5B88012BC5D90E4B0E480F499B
:100A2000C01AC008000440F0020000F061F8BAE704
:100A3000236820469B689847E3681C68E8E7002520
:100A40006FE700BF78020020A0250000840200208C
:100A50001400002018250000402500005426000046
:100A60003C0000202DE9F34704460E46924601A9BA
:100A7000012218469946FFF777FD1B4F10B3019DE1
:100A80004FF00008AA1CC84508EB020123D1174803
:100A9000002100F035FA80F31000000440EA144011
:100AA000E4006B1C04F03804DBB2EDB244F0010446
:100AB00007EB8303033544EA881444EA8624D860AC
:100AC00047F825403B781BB1FFF7A6FE0028FBD175
:100AD00002B0BDE8F087C9B207EB81015AF82830AF
:100AE000CB6008F10108CEE77802002094060020D0
:100AF00000231A46FFF7B6BF2DE9F84388461B4985
:100B0000D1F81034054600241A468AB9EA681471EF
:100B1000A3B9C1F810541360154B164EF61AF60817
:100B2000002703F10709B7420DD12046BDE8F8833D
:100B3000D2681079A04212D01268E6E7DB68196823
:100B400011601D60E8E719F83720EB684245394627
:100B5000187928BF4246FFF72BFE0137E3E701343F
:100B60000A2CD1D14FF0FF34DFE700BF780200201C
:100B7000182500009025000038B5084B0125D3F852
:100B800010441D7004B938BDE3685D7123682046C8
:100B90005B689847E3681C68F4E700BF78020020B0
:100BA00030B5C38885B004460D4633B1144A00926F
:100BB0001449154A284600F03BFA217A05291DD030
:100BC000637A4BB1A088FFF7DDFD104B104953F855
:100BD0002020284600F02CFA227A0E4BA08853F8E9
:100BE000222003920021FFF7BBFD039A0A49034626
:100BF000284605B0BDE8304000F01ABA05B030BD57
:100C0000A826000090260000882600001427000077
:100C1000AD26000038270000B026000007B50346C7
:100C20000846197A052911D05B7A2BB1094A0A497D
:100C3000019000F0FDF901980849019000F0F8F9E1
:100C4000019803B05DF804EB00F0E7B9002AF8D092
:100C5000F2E700BFA8260000AD260000A526000090
:100C60002DE9F04385B01F460C9D002395F80C90AC
:100C70002B7306460C46904629463846FFF790FFF0
:100C8000B8F1060F09D8DFE808F00412181F28335E
:100C900040003146284600F0CBF90022294638466C
:100CA000FFF7BCFF85F80C9005B0BDE8F083226823
:100CB0003146284600F0BCF9EFE7D4E9002331467D
:100CC000284600F0B5F9E8E7A36800933146D4E977
:100CD0000023284600F0ACF9DFE7E3680193A3683E
:100CE00000933146D4E90023284600F0A1F9D4E767
:100CF00023690293E3680193A36800933146D4E922
:100D00000023284600F094F9C7E763690393236939
:100D10000293E3680193A36800933146D4E900236A
:100D2000284600F085F9B8E708292DE9F74F8046F5
:100D30000E4617461C463DD800251B7B25732146D1
:100D400010460193FFF72CFFDFF88CA0DFF88CB082
:100D5000AE4232D918F805205946204600F068F90D
:100D60000135082DF4D11B49DFF874A0DFF874B009
:100D7000204600F05DF94FF000094E4524D918F8DF
:100D800009507E2D1ED8284601F0ECFA002814BF29
:100D90002A462E225946204600F04AF909F1010957
:100DA000B9F1080FE9D1012221463846FFF736FF95
:100DB000019B237303B0BDE8F08F5146204600F03D
:100DC00037F9CDE72E22E5E75146204600F030F90D
:100DD000E4E700BFC4260000C0260000BA260000D9
:100DE000C2260000C62600000A4B185C1F288ABFD6
:100DF000094B4FF0A04300F01F00D3F80425012158
:100E0000814021EA02000A40C3F80805C3F80C2516
:100E1000704700BF4C270000000300501FB50021A1
:100E2000039001AA44F20100CDE9011100F004F899
:100E300005B05DF804FB000010B572B6FFF79CFE2C
:100E4000FFF7EAFC0028FBD1164C63884BB116482B
:100E5000164B1749C01AC008000440F00100FFF704
:100E600047FE144BD3F8F030DB0700D500BE638893
:100E7000012B09D90C480D4B0F49C01AC0080004BA
:100E800040F00200FFF734FEBFF34F8F09490B4BD0
:100E9000CA6802F4E0621343CB60BFF34F8F00BF18
:100EA000FDE700BF140000204025000018250000C9
:100EB0008027000000ED00E08C2700000400FA0508
:100EC00072B6024A1368013313607047300700207E
:100ED000034A1368013B136003B962B6704700BF51
:100EE00030070020FFF7ECBFFFF7F2BF024B034AC9
:100EF0001B681068184700BF3C070020340700201B
:100F000010B5034653E8000F0A4643E8002494F066
:100F1000000FF7D110BD10B5034653E8002F42EA89
:100F2000010043E8000494F0000FF6D110BD10B5A5
:100F3000034653E8000F00EA010243E8002494F05E
:100F4000000FF6D110BD10B5034653E8002F02EB99
:100F5000010043E8000494F0000FF6D110BD10B575
:100F6000034653E8002FA2EB010043E8000494F08D
:100F7000000FF6D110BD0121FFF7CDBF0021FFF713
:100F8000D6BF10B590B1D0E9012301689B1ADBB23E
:100F90000A60013BDBB2FF2B026802D10020107116
:100FA00010BD11684C1C14600B70F2E70E20F7E7BF
:100FB00038B504460020FFF795FF22686368116882
:100FC000994213D9481E106011F8013CE568A18AC6
:100FD00001FB0355A36811791B1ADBB2994200D2B9
:100FE00013710020FFF780FF284638BD0025F8E781
:100FF00038B5054600200C46FFF774FF2A681368D1
:10100000591C1160E968641AA98AB4FBF1F41C70D8
:10101000BDE838400020FFF767BF826810B504467E
:101020002AB143690168006998470023A36010BD95
:101030000EB403B5039921B104AB01AA019300F0EA
:1010400077F802B05DF804EB03B070470A2938B5B1
:1010500004460D4602D10D21FFF7F8FFA368226870
:10106000591CA160D554D4E901329A4204D32046D8
:10107000BDE83840FFF7D1BF38BD00002DE9F84F7B
:101080009846DDE90A43154682460F460A464FF068
:101090000109AA420FD2C14538BFC14613F0010B66
:1010A00001D16CB900240126B8F1010F1BD908F158
:1010B000FF386E43F8E709F10109B2FBF5F2E8E702
:1010C0009B070ED5B8F1000F0CBF30262026A14596
:1010D000E9D2013C31465046FFF7B8FF002CF6D16B
:1010E000E0E72026F3E7B7FBF6F39D42E1D9DFF80E
:1010F0003C80B7FBF6F3504618F8031006FB137755
:10110000FFF7A4FF3346AB42B6FBF5F6F1D2BBF1D5
:10111000000F02D00CB1A14501D3BDE8F88F20210A
:101120005046013CFFF792FFF4E700BFB5270000EF
:101130002DE9F74F054617468846002900F03E8105
:1011400018F8011B49B92B7B002B00F0378128468A
:1011500003B0BDE8F04FFFF760BF252940F0B7802E
:10116000002698F800302D2B424608F1010823D0C4
:10117000302B24D02B2B25D000242A2B02F1010167
:1011800023D13B681A1D1B683A601C440A46137839
:101190002E2B26D101324FF0000A104610F8011B09
:1011A000A1F1300CBCF1090F1DD80A2303FB0A136F
:1011B000A3F1300A0246F0E746F00106D1E746F017
:1011C0000206CEE746F00406CBE711F8013CA3F196
:1011D00030000928DBD80A2202FB0434303C0A46DE
:1011E000CBE74FF0000A12F8011B01F0FB00682862
:1011F0009046F8D0782909D86F290CD8632962D095
:1012000022D8252963D0582900F0888098F800302A
:10121000002B95D197E770390829F7D801A353F827
:1012200021F000BF971300000D1200000D12000006
:101230002D1300000D1200000B1300000D12000012
:101240000D1200001D130000642901D06929DDD1B1
:101250003A68D2F80090111D89EAE9723960A2EB70
:10126000E9724FF0010B092A35DCD34538BFD3466C
:101270002CB1B9F1000F01DB720700D5013CB307B7
:1012800002D5BAF1000F03D0F00701D44CBB002403
:10129000B9F1000F2DDAC9F100092D212846FFF719
:1012A000D5FE06F00302022A04D1BAF1000F01D1E3
:1012B0001CBB0024CDE9004653460A224946284675
:1012C000FFF7DCFEA2E73B681A1D19783A60284652
:1012D000FFF7BCFE9AE70A230BF1010BB2FBF3F216
:1012E000C1E7A345D4D220212846013CFFF7AEFE3A
:1012F000CCE77107D5D52B21D0E7A345DAD2302131
:101300002846013CFFF7A2FED2E73968CDE9004646
:101310000A1D3A6053460A220968D0E739680A1D57
:101320003A60CDE9004653461022F5E73B681A1DA6
:101330003A6016F00106D3F8009024D1B9F1000FFD
:1013400003D0484601F0B8F80646B4421DD809F16A
:10135000FF3919F8011F00293FF458AF2846FFF75D
:1013600075FEF6E728460136FFF770FE19F80610FD
:101370000029F7D1A642BFF449AF20212846013CFD
:10138000FFF764FEF6E70026F0E720212846013C3F
:10139000FFF75CFED9E73B681A1D3A60302128460A
:1013A0001C68FFF753FE78212846FFF74FFE002206
:1013B0000823CDE900322146102280E703B0BDE8C2
:1013C000F08F00BF2DE9F84FB0F806A04579D2F8AC
:1013D00000B09DF828900AFB05F5043D88460BEB0C
:1013E0000301A94203F1040488BFA5EB030BB4FB7E
:1013F000FAF607460AFB1644C2F800B04EB9AAEB4B
:1014000004055D4528BF5D46BBF1000F04D1BDE872
:10141000F88F3F68013EF1E7043408EB06003C44D6
:101420002A46B9F1000F0DD02146ABEB050B00F0B9
:10143000C5FFDA452E443F6855464FF0000428BFEB
:101440005D46E1E701462046EFE7FFF79ABDF8B5B4
:1014500046790146721E0546002393422D6803D348
:101460000024A64202D8F8BD0133F6E70F682846EB
:10147000FFF7BEFD01343946F3E72DE9F843868ACC
:10148000CD1C0746FFF794FD043E35440446B5FBEA
:10149000F6F5F0B14FF48073EDB28380C680013D64
:1014A000076081464FF00008A84512D23846FFF782
:1014B0007FFD064648B163790133637108F1010885
:1014C000C9F8000007608146EEE72046FFF7BFFF3E
:1014D00034462046BDE8F88301210430FFF733BDD0
:1014E00010B5012104460430FFF739FDC0B220B920
:1014F0002046BDE81040FFF7AABF10BD1FB50392FC
:101500000022009203AAFFF75DFF05B05DF804FB1F
:101510001FB503920122009203AAFFF753FF05B003
:101520005DF804FB836800225A60C3E904229A60D4
:10153000DA601A60704700007FB503788DF80430D8
:101540004368029383688DF80C30C3680493036981
:10155000064A8DF81430064B01A853F8213052F892
:101560002110984707B05DF804FB00BF400700203A
:1015700050070020F0B50546174615F804CB124A6F
:1015800042F82C70114A42F82C30114B0C460FCB0C
:1015900085B06E4686E80F002368009323798DF8A6
:1015A000053063798DF80630A3680293002FA38974
:1015B000084AADF80C3008BF3A4663463146284623
:1015C00000F0E4F905B0F0BD50070020400700200E
:1015D000D02700003915000000F1804000F5C04020
:1015E000002382B0036003680193019B02B070473F
:1015F00003681F2B83BF03F01F03036001484FF0F4
:10160000A04070470003005007B5019001A8FFF704
:10161000EFFF019B00EB8300D0F8003723F4403349
:10162000C0F80037D0F8003743EA0141C0F800178E
:1016300003B05DF804FB0000F7B53D4F3B180446CE
:1016400093F93030002B71DA8B78C3F34003002B11
:101650000BBF082500250C200820854202D104205C
:1016600003B0F0BD57F82560013647D138196EB286
:1016700047F8252080F8306013B97B1983F858406B
:101680008B785A071AD4D8073AD501A80194FFF7E6
:10169000AFFF019B00EB8300D0F8003723F002037B
:1016A000C0F800372348E20804F0070C012303FACE
:1016B0000CF310F802C043EA0C03835488780B78CB
:1016C00010F0020028D0AD0005F1804505F5C045B9
:1016D0002402D5F8102522F44F3222F44072C5F8C6
:1016E00010251B04D5F8102504F47C5403F4403372
:1016F0001C431443C5F810450020B1E70135ACE7A1
:1017000001A84A780194FFF773FF019B03F5E0738A
:10171000920040F82320C5E7083E47FA86F797F87D
:10172000604044EA831387F8603099E7082097E720
:1017300060070020C40700202DE9FF470024CDE901
:101740000244584D4FF48072012102F1804303F5A9
:10175000C04390B21B68012B06D1D5F804330B426D
:1017600002D0FFF739FF0C430432B2F5907F4FEA05
:101770004101EAD14B4BD3F87C31012B11D14FF40D
:10178000BE70FFF729FF4FF0A04344F00044D3F8A8
:1017900020250292C3F82025D3F820280392C3F80D
:1017A0002028E3B2D3B1404F00250126344210D0A7
:1017B000AB0003F1804303F5C043D3F81005D3F821
:1017C000101557F8253023B1C1F30141C0F30520AE
:1017D00098470135082D4FEA4606E7D1002C59DA23
:1017E000314D324C324E4FF00008012716F9013BC3
:1017F0005A1C3CD0C3F3C201103169445FFA83F92B
:1018000011F8081C03F03F0203F0070307FA03F383
:1018100019422CD001A80192FFF7EAFE019B03F5C3
:10182000E07350F82330C3F3014ABAF1020F0CBF42
:10183000032102211046FFF7E7FE01A80192FFF7FE
:10184000D7FE019B07FA03F3C0F82035AB1893F9D4
:10185000303055F8233053B14FEA9911032904D0A1
:10186000BAF1020F19D1012901D11046984708F1A8
:101870000108B8F1040FB9D14FF0A043D3F82025E7
:101880000292C3F82025D4F820350393C4F82035FC
:101890001343A7D104B0BDE8F087BAF1030FE6D136
:1018A0000229E1E7006000406007002000030050CB
:1018B000C0070020014B1B68184700BFCC07002061
:1018C00038B50B4B98420C4601D0002038BD0020A3
:1018D000FFF708FB074B1D7915B901221C601A712F
:1018E0000020FFF701FB002DEFD01120EEE700BF35
:1018F00000200040CC0700201F2886BF054A00F0CA
:101900001F004FF0A042012303FA00F0C2F80C05BB
:10191000704700BF000300501F2886BF054A00F033
:101920001F004FF0A042012303FA00F0C2F808059F
:10193000704700BF00030050114B07B5D3F81821C2
:10194000DAB110490022C3F81821C87FD3F8183142
:101950000193FF28019B03D08B7F5BB1FFF7CCFF86
:1019600000234B770B72D1E90031074803B05DF8D3
:1019700004EB1847FFF7D0FFF2E703B05DF804FB74
:1019800000300040D4070020DC0700202DE9F74F8D
:1019900006796D4D01934FF0240909FB06F905EB1B
:1019A000090A93469AF81C2080460C46002A40F00B
:1019B000C780076865493846FFF782FF014600285F
:1019C00040F0C08045F809B0019BCAF80430237B81
:1019D0002078012B00F29D80FFF78EFF23781F2BCC
:1019E00086BF03F01F035A4A4FF0A04203F5E0738D
:1019F000012042F8230094F80190B9F1FF0F00F0A4
:101A00008B804846FFF778FFB9F11F0F8BBF09F0B5
:101A10001F034B464E4A4FF0A04203F5E0730320EC
:101A200042F82300A378FF2B79D01F2B8BBF03F044
:101A30001F021A4646484FF0A04002F5E0724FF0F0
:101A4000040C40F822C09A46242202FB065282F877
:101A50002030E078D077FF2816D02379002B61D092
:101A6000FFF74AFFE3781F2B86BF03F01F03384AB6
:101A70004FF0A04203F5E073032042F82300242333
:101A800003FB065322799A772378C7F80835A368B1
:101A9000C7F80C95C7F810A5C7F82435637B227BDF
:101AA000003B18BF0123022A3FD0032A40D0012A5D
:101AB00001D143F00203C7F85435A379C7F8C03504
:101AC0000723C7F8003524237343EB58B3B1D8F884
:101AD0000030627943F3073052010028C3F3073323
:101AE000D2B228DB1B4C271887F8002301224009BB
:101AF00003F01F0302FA03F344F82030242303FB0E
:101B0000065500236B7701232B77084603B0BDE809
:101B1000F08FFFF701FF61E74FF0FF3982E74FF0E9
:101B2000FF3A91E7FFF7F8FE9CE743F00403C2E7B2
:101B300043F00603BFE7084803F00F03C254DDE794
:101B40000821E2E71121E0E7D4070020391900005D
:101B50000003005000E100E014ED00E02DE9F34146
:101B60000779424E24237B431446F2180D46517FD9
:101B70008046002978D1F35823B114F0140F04BF24
:101B80000123537795E80F004FF0240C0CFB076CF2
:101B90000CF10C0E8EE80F009CF81F00FF2804D0FB
:101BA0009CF81E30C3B1FFF7B7FE296821B101F0E0
:101BB0006043B3F1005F06D1AA6882B102F06043CE
:101BC000B3F1005F0BD0242303FB07660023737778
:101BD000102002B0BDE8F081FFF78EFEE5E7D8F8EF
:101BE00000306868C3F84415C3F84805E968C3F8CD
:101BF00034250022C3F83815C3F81821D3F818216A
:101C00000192019A14F0010218BF0122C3F8502575
:101C100014F0020218BF0122C3F8402522075CBF5E
:101C200001221A6124227A43B25892B9D3F81821BA
:101C3000002AFBD0242303FB0766F07FFF2803D094
:101C4000B47F1CB1FFF758FE0020C2E7FFF764FE27
:101C5000FAE714F004004FF0400202D0C3F8082362
:101C6000F2E7C3F80423B4E71120B2E7D407002059
:101C7000F0B52E4C6388022B87B009D92C482D4B28
:101C80002D49C01AC008000440F00300FEF730FFE1
:101C9000FEF7C2FD0028FBD14FF48041FEF710FD96
:101CA00008B1FFF7BBF8FEF731FC6388022B11D9AE
:101CB000204B1F482049C01AC008000440F0030010
:101CC0000190FEF715FF6388022B03D91A4901988A
:101CD000FEF70EFF00F06AFA184C0025184B194E5B
:101CE000256002931848C4F803500723002202A974
:101CF000CDE9033435700593FFF730FF08B1FFF7E6
:101D00008DF833787BB1FEF787FD0028FBD10F4FAC
:101D1000FFF76AF8C82647F001074FF47A40B84742
:101D2000013EFAD1DAE720BFEBE700BF1400002044
:101D3000402500001825000049280000F807002071
:101D400080000020000800206C28000060280000AF
:101D50000369C26893429CBF80681B18013B981AB4
:101D600070472DE9F843D0E902940546A9EB040831
:101D70004068904520440F46144404D900F01EFBEF
:101D8000EC60BDE8F8834246A4EB090400F016FBC2
:101D90006868224607EB0801F0E72DE9F843C568BB
:101DA0000646894617464FF000083469B3687068E4
:101DB000A54228BFE418013C621B5C1BBC4228BF43
:101DC0003C46944228BF144649462844224600F027
:101DD000F5FAB3682544AB4208BF00253F1BA04479
:101DE000A144F560E1D14046BDE8F88310B5114C3F
:101DF000114AA2610223C4E90433104BE361A264D7
:101E00004FF400730E4A0F492362E264002310224C
:101E1000E01DA3626362E362A3656365E365226517
:101E200000F028FB0849204600F024FB2023A37182
:101E300010BD00BF04080020782800008C08002096
:101E40007C080020812800008528000070B5164B12
:101E5000182400FB04451D4404FB00331646DC6ACD
:101E6000012C0ED0022C18D0E4B92846FFF770FFE1
:101E7000864204D832462846FFF773FF3446204690
:101E800070BD2846FFF764FF8642344628BF0446EB
:101E900022462846FFF765FFF1E72846BDE8704077
:101EA000FFF77BBF0024EAE704080020FFF79EBF8E
:101EB000BFF34F8F0549064BCA6802F4E062134333
:101EC000CB60BFF34F8F00BFFDE700BF00ED00E028
:101ED0000400FA054FF08053D3F83001A0F1080355
:101EE00058425841704700004FF08053D3F83021DA
:101EF000082A06D1D3F83431052B02D8024AD05C27
:101F000070470020704700BF92280000024AD2F8B4
:101F10000034002BFBD0704700E0014010B5FFF704
:101F2000D9FF40B14FF080430022C3F80C21C3F821
:101F30001021C3F83825FFF7CDFF002846D04FF019
:101F400080526B4BD2F80414C3F82015D2F8081451
:101F5000C3F82415D2F80C14C3F82815D2F81014BD
:101F6000C3F82C15D2F81414C3F83015D2F818148D
:101F7000C3F83415D2F81C14C3F84015D2F8201455
:101F8000C3F84415D2F82414C3F84815D2F828141D
:101F9000C3F84C15D2F82C14C3F85015D2F83014ED
:101FA000C3F85415D2F83414C3F86015D2F83814B5
:101FB000C3F86415D2F83C14C3F86815D2F840147D
:101FC000C3F86C15D2F84424C3F87025FFF78CFFD2
:101FD00018B1484B484AC3F88C26FFF785FF18B163
:101FE000464BFB22C3F81825FFF77EFF70B14FF078
:101FF00080414FF08053D1F8E42ED3F8583222F0CC
:102000000F0203F00F031343C1F8E43EFFF76CFF28
:1020100020B13B4B4FF40072C3F84026FFF75AFF44
:1020200048B14FF08043D3F80024D20744BF6FF08B
:102030000102C3F80024334AD2F8883043F4700315
:10204000C2F88830BFF34F8FBFF36F8F4FF08053CC
:10205000D3F83021082A0ED1D3F83431052B02D819
:10206000294AD35C3BB14FF01023D3F808224FF03C
:102070008043C3F858254FF01021D1F80C32DB070C
:1020800014D522480123C0F80435FFF73FFFD1F8EB
:102090000C3223F00103C1F80C32FFF737FF0023A5
:1020A000C0F80435FFF732FFFFF702FFD1F8003226
:1020B000002B03DBD1F80432002B14DA134901237F
:1020C0004FF01020C1F804351224FFF71FFFC0F8AD
:1020D0000042FFF71BFFC0F80442FFF717FF002381
:1020E000C1F80435DEE70A4B0A4A1A6010BD00BF8A
:1020F00000C00040005000404881030000F0004054
:102100000090024000ED00E08C28000000E001405B
:10211000880000200090D003037813B9014B0122FE
:102120001A7070478C0000201F288ABF0A4B4FF09E
:10213000A04300F01F00D3F8103523FA00F04FF051
:10214000A04310F0010F4FF4803214BFC3F80825EC
:10215000C3F80C25704700BF00030050074B5B7CA1
:102160001F2B86BF064903F01F034FF0A041012239
:1021700002FA03F3C1F80835704700BF8C0A00204B
:1021800000030050074B1F28587486BF00F01F0043
:10219000054B4FF0A04300F5E070032243F82020E8
:1021A000FFF7DCBF8C0A00200003005070B53A4CEA
:1021B00086B01F20FFF7E6FF6388022B09D9374856
:1021C000374B3849C01AC008000440F00300FEF73E
:1021D0008FFCFEF721FB0028FBD1334B1A889B783C
:1021E0008DF806300323ADF804208DF805306388A0
:1021F000022B09D929482A4B2C49C01AC0080004CF
:1022000040F00300FEF774FCFEF706FB0028FBD14C
:10221000274A01A92920FFF70FFA08B1FEF7FEFDB2
:102220006388022B09D91D481D4B2249C01AC008DA
:10223000000440F00300FEF75BFCFEF7EDFA0646F3
:102240000028FAD11C4B0FCB02AD85E80F004FF0F0
:102250000073049303F11D2303F5F0131A33029363
:10226000164A174833462946FFF784F908B1FEF7A6
:10227000D5FD6388022B09D90848094B1149C01ABA
:10228000C008000440F00300FEF732FCFEF7C4FA79
:102290000028FBD106B070BD1400002040250000CE
:1022A0001825000098280000B8280000A028000089
:1022B00029210000A8280000BC28000019210000E6
:1022C000CC280000B02800007F2805D8034A044B22
:1022D000105C5B5C1840704700207047E8280000E5
:1022E00068290000A0F16103192B98BF20387047BE
:1022F000A0F14103192B98BF203070477F299ABF66
:10230000017001206FF02E00704700BF5AB10A78AB
:102310007F2A0AD800B102600021501AC3E90011D7
:1023200018BF01207047104670476FF02E007047AD
:10233000A0F16103192B98BF20387047A0F1410329
:10234000192B98BF203070477F2805D8034A044BCB
:10235000105C5B5C1840704700207047E828000064
:1023600068290000024B5B689B6809211B681847BD
:1023700090000020B2B1012A03461AD0024410B5E1
:1023800002F1FF3C05E011F8012B904208D19C4579
:102390000AD01C4613F8010B8E460028F3D10A78A8
:1023A000801A10BD1046704760789EF80120801A90
:1023B00010BD00780A78801A704700BF844640EA52
:1023C000010313F0030F18D18446202A0BD32DE903
:1023D000F007B1E8F807A0E8F807A2F12002202AE8
:1023E000F7D2BDE8F007042A07D351F8043B40F8C0
:1023F000043BA2F10402042AF7D2002A05D011F806
:10240000013B00F8013B013AF9D160467047844630
:10241000002A2DD010F0030F04D000F8011B013A60
:1024200026D0F7E7C9B241EA012141EA0141202A59
:1024300012D3A2F120022DE9F0030B460C460D4603
:102440000E460F4688468946A0E8FA03203AFBD29A
:10245000BDE8F00320320BD0042A05D340F8041B5A
:10246000043A05D0042AF9D200F8011B013AFBD145
:1024700060467047024610F0030F16D111F0030FAB
:1024800013D12DE9F0004FF001374FF0803351F8B0
:10249000044BA4EB070525EA04051D4002D142F8D0
:1024A000044BF4E7A1F10401F0BC11F8013B02F880
:1024B000013B002BF9D1704700F1010110F0030F2F
:1024C00011D010F8012B002A23D010F0030F0AD0EE
:1024D00010F8012B002A1CD010F0030F03D010F8C5
:1024E000012B002A15D02DE970004FF001324FF07A
:1024F000803350F8044BA4EB020525EA04051D4087
:1025000000D1F6E7A0F1040070BC10F8012B002AFE
:08251000FBD1A0EB01007047B4
:10251800E027000000000000E7270000000000009E
:10252800EB27000000000000F0270000000000007A
:10253800F5270000000000006526000000000404E4
:102548007527000000000000AB2700000000000015
:102558001628000000000003FB270000000000030D
:10256800302800000000000350270000000000038E
:1025780099270000000000036926000000000003FE
:08258800C5270000000000005F
:1025900038260000000000004426000078000020DB
:1025A000A80100207002002078020020B001002065
:0825B0003400002018000000B7
:1025B8000000000000000000000000000000000013
:1025C8000000000000000000000000000000000003
:1025D80000000000000000000000000000000000F3
:0C25E800000000000000000000000000E7
:1025F40000000000000000000000000000000000D7
:1026040000000000000000000000000000000000C6
:1026140000000000000000000000000000000000B6
:0C262400000000000000000000000000AA
:102630000338FDD870470000D503000045040000B2
:10264000D10300007274745F6C6F675F6261636BCB
:10265000656E64004261636B656E647320666C75C1
:1026600073686564006170700062616C6C6F632EEA
:102670006C6F675F6D656D706F6F6C009806002002
:102680007F000000180700201B5B313B33316D00D9
:1026900025734C6F67732064726F707065642028B7
:1026A00025642925730D0A001B5B306D002573001E
:1026B0003C25733E2025733A2000202530327800D7
:1026C000202020007C002563001B5B313B33306DF4
:1026D000001B5B313B33326D001B5B313B33336D91
:1026E000001B5B313B33346D001B5B313B33356D7D
:1026F000001B5B313B33366D001B5B313B33376D69
:10270000007761726E696E6700696E666F0064655E
:1027100062756700A8260000C92600008826000010
:10272000D1260000D9260000E1260000E92600009D
:10273000F1260000F92600000000000086270000B6
:1027400001270000092700000E2700000D0E0F10C2
:102750006170705F74696D65722E6D5F646574651C
:102760006374696F6E5F64656C61795F74696D65D0
:10277000725F6964006170705F627574746F6E007F
:10278000466174616C206572726F72005379737464
:10279000656D2072657365740061746669666F2E7D
:1027A0006D5F7265715F6669666F006170705F74FE
:1027B000696D65720030313233343536373839411E
:1027C0004243444546736F72746C69737400000031
:1027D000FFFFFFFF0006FF000000004000000000B8
:1027E0004750494F544500505253005350494D00F3
:1027F00055415254005541525445006170705F7408
:10280000696D65722E6D5F6273705F627574746F4F
:102810006E5F746D72006170705F74696D65722EA9
:102820006D5F6273705F616C6572745F746D72006E
:102830006170705F74696D65722E6D5F6273705F39
:102840006C6564735F746D720053504920657861E4
:102850006D706C6520737461727465642E00000085
:102860000338FDD870470000000000000030004031
:1028700000000000010000005465726D696E616C1B
:102880000052545400534547474552000000000091
:10289000010101000000000068656C6C6F312E00C2
:1028A00068656C6C6F322E0068656C6C6F332E003F
:1028B00068656C6C6F342E0003000200FFFFFFFFA1
:1028C00006FF0000000000400000000000000000C3
:1028D0000030004000000000010000004300000044
:1028E000504F534958000000202020202020202055
:1028F0002068282828282020202020202020202070
:10290000202020202020202048101010101010100F
:102910001010101010101010848484848484848417
:102920008484101010101010108181818181810128
:102930000101010101010101010101010101010187
:102940000101011010101010108282828282820216
:102950000202020202020202020202020202020257
:1029600002020210101010200007032004170201B9
:102970000857104080000000DC280000E02900001B
:10298000F42A000053756E004D6F6E00547565009B
:10299000576564005468750046726900536174009D
:1029A000000000004A616E00466562004D617200E1
:1029B000417072004D6179004A756E004A756C0075
:1029C00041756700536570004F6374004E6F760069
:1029D0004465630000000000414D00504D000000C0
:1029E000182B0000142B0000142B0000142B0000E7
:1029F000142B0000142B0000142B0000142B0000DB
:102A0000142B0000142B0000FFFFFFFFFFFFFFFF50
:102A1000FFFFFFFFFFFF0000542A00008429000091
:102A2000902A0000A4290000D8290000382A0000BC
:102A3000E82A0000442A0000256D2F25642F2579FF
:102A400000000000256120256220256520255420F6
:102A50002559000053756E646179004D6F6E646195
:102A6000790054756573646179005765646E6573A8
:102A700064617900546875727364617900467269A3
:102A800064617900536174757264617900000000BB
:102A90004A616E756172790046656272756172791C
:102AA000004D6172636800417072696C004D61791C
:102AB000004A756E65004A756C79004175677573DB
:102AC000740053657074656D626572004F63746F56
:102AD000626572004E6F76656D6265720044656373
:102AE000656D62657200000025483A254D3A255310
:102AF00000000000C9220000E5220000F1220000D1
:102B000049230000312300003D230000FD22000086
:0C2B10000D230000000000002E0000005B
:102B1C0000000000FF0000004E6F7264696300004B
:102B2C000090D003010000007829000078290000F3
:0C2B3C00782900007829000078290000AA
:040000030000037581
:00000001FF
